:020000040800F2
:10000000B0F500206902000825BA00087D8A0008C2
:1000100021BA00082D100008454701080000000023
:10002000000000000000000000000000C1F800080F
:100030007D1C000800000000A1C90008D1FC0008D8
:10004000830200088302000883020008830200087C
:10005000830200088302000883020008811C000854
:10006000830200088302000883020008830200085C
:10007000AD1700088302000883020008830200080D
:10008000BD170008CD17000883020008830200088E
:100090003110000883020008830200088302000870
:1000A00083020008DDFD00088302000883020008C7
:1000B000F9FD00088302000883020008830200089B
:1000C00083020008830200088302000883020008FC
:1000D00083020008050C0108210C0108310C0108FD
:1000E00083020008830200088302000883020008DC
:1000F000830200088302000883020008DD1700085D
:1001000083020008830200088302000883020008BB
:1001100083020008830200088302000809FE000829
:1001200083020008ED170008FD1700080D180008ED
:10013000830200088302000883020008830200088B
:10014000411000088302000883020008DDBD00089A
:100150001D1800082D1800083D1800084D0C010856
:10016000830200088302000883020008830200085B
:1001700083020008830200088302000800000000D8
:10018000830200088302000800F002F800F05CF827
:100190000AA090E8000C82448344AAF10107DA45E2
:1001A00001D100F051F8AFF2090EBAE80F0013F0D8
:1001B000010F18BFFB1A43F00103184704C60100E2
:1001C00024C601000A444FF0000C10F8013B13F064
:1001D000070408BF10F8014B1D1108BF10F8015BA0
:1001E000641E05D010F8016B641E01F8016BF9D193
:1001F00013F0080F1EBF10F8014BAD1C0C1B09D1EA
:100200006D1E58BF01F801CBFAD505E014F8016B5B
:1002100001F8016B6D1EF9D59142D6D370470000ED
:100220000023002400250026103A28BF78C1FBD8FF
:10023000520728BF30C148BF0B6070471FB51BF085
:10024000E6FA1FBD10B510BD00F084F91146FFF7A6
:10025000F5FF17F061F800F0A2F903B4FFF7F2FF21
:1002600003BC00F0A5F90000094880470948004791
:10027000FEE7FEE7FEE7FEE7FEE7FEE7FEE7FEE756
:10028000FEE7FEE704480549054A064B70470000B3
:10029000C9FD000889010008B0B50020B0F50020B4
:1002A000B0D50020B0D5002053EA020C00F06980E0
:1002B0002DE9F04B4FF00006002B1FBFB3FA83F57A
:1002C00003FA05F424FA05F65E4012BF1643B2FAAB
:1002D00082F502FA05F4C5F120051EBF22FA05FCDD
:1002E00044EA0C04203556EA044C4FEA144418BF83
:1002F000641C4FF000084FF00009904271EB030CB2
:1003000039D3002919BFB1FA81F701FA07F6B0FA1B
:1003100080F700FA07F6C7F120071EBF20FA07FC96
:1003200046EA0C062037B6FBF4FCA7EB0507103FA6
:1003300007F01F0BCBF120062CFA06F60CFA0BFB8C
:1003400044BFB3460026202FA4BF5E464FF0000BEB
:100350005BEA060C08BF4FF0010B19EB0B0948EBE9
:100360000608ABFB027C06FB02CC0BFB03CCC01BDC
:1003700071EB0C01C1E70B46024641464846BDE819
:10038000F08B13B5084318BF4FF0FF300146AFF3B1
:100390000080BDE81C407047032A40F2308010F016
:1003A000030C00F0158011F8013BBCF1020F624410
:1003B00098BF11F801CB00F8013B38BF11F8013BA1
:1003C000A2F1040298BF00F801CB38BF00F8013B4E
:1003D00011F0030300F02580083AC0F0088051F8BE
:1003E000043B083A51F804CBA0E80810F5E7121DC9
:1003F0005CBF51F8043B40F8043BAFF30080D207E8
:1004000024BF11F8013B11F801CB48BF11F8012BB3
:1004100024BF00F8013B00F801CB48BF00F8012BD6
:10042000704710B5203AC0F00B80B1E81850A0E832
:100430001850B1E81850A0E81850203ABFF4F5AFB2
:100440005FEA027C24BFB1E81850A0E8185044BF0E
:1004500018C918C0BDE810405FEA827C24BF51F87B
:10046000043B40F8043B08BF7047D20728BF31F86F
:10047000023B48BF11F8012B28BF20F8023B48BFC0
:1004800000F8012B704702F0FF0343EA032242EA1F
:10049000024200F024B84FF000020429C0F012809C
:1004A00010F0030C00F01B80CCF1040CBCF1020F27
:1004B00018BF00F8012BA8BF20F8022BA1EB0C01FC
:1004C00000F00DB85FEAC17C24BF00F8012B00F8F2
:1004D000012B48BF00F8012B70474FF0000200B518
:1004E000134694469646203922BFA0E80C50A0E857
:1004F0000C50B1F12001BFF4F7AF090728BFA0E805
:100500000C5048BF0CC05DF804EB890028BF40F8D0
:10051000042B08BF704748BF20F8022B11F0804F12
:1005200018BF00F8012B704770477047704710B52F
:1005300000F008F8006810BD10B5044600F002F89D
:10054000046010BD00487047F80100200048704763
:10055000F80100207546FFF7F9FFAE460500694631
:10056000534620F00700854618B020B5FFF78AFEF5
:10057000BDE820404FF000064FF000074FF00008A4
:100580004FF0000BAC46ACE8C009ACE8C009ACE8E1
:10059000C009ACE8C00921F007018D46704710B5CD
:1005A0000446AFF300802046BDE81040FFF755BE7B
:1005B00001491820ABBEFEE726000200704700008C
:1005C00082B0019042F20030C4F201000090009924
:1005D000486820F4403048600198426800994868B3
:1005E0001043486001980168486820F480704860B2
:1005F000019801680269486840EA02204860019851
:100600000168486820F0407048600198016882687D
:1006100048681043486001980168886820F40060C9
:10062000886001980168C2688868104388600198F2
:10063000806A0121C0F60071884219D0FFE7019855
:100640000168886820F07060886001980168826A9B
:1006500088681043886001980168886820F04050DD
:10066000886001980168C26A8868104388600CE05D
:1006700001980168886820F07060886001980168BE
:10068000886820F040508860FFE70198016888681A
:1006900020F0020088600198027E0168886840EAC4
:1006A00042008860019890F82000C8B1FFE70198E7
:1006B0000168486840F40060486001980168486833
:1006C00020F46040486001980168426A4EF20000E0
:1006D000CFF6FF7000EB423248681043486006E0F6
:1006E00001980168486820F400604860FFE70198BD
:1006F0000168C86A20F47000C86201980168C26984
:100700000020CFF6F07000EB0252C86A1043C862B6
:1007100001980168886820F400708860019890F85A
:1007200030200168886840EA4220886001980168AA
:10073000886820F480608860019801684269886850
:1007400040EA8220886002B07047000080B58AB01D
:100750000990089140F25820C2F20000039043F241
:100760004C61C2F2000102910022049200F01AF9D9
:100770000299039800F072F803980899B1F9A0243F
:1007800000EE102AB8EEC00A01F2C44191ED001A41
:10079000F1EE410A00F20A600BF0A4FD03980899FB
:1007A000B1F9E82600EE102AB8EEC00A01F20C7189
:1007B00091ED001AF1EE410A00F652000BF092FDA5
:1007C0000398089901F63C1292ED000AB8EEC00AAF
:1007D00001F65411D1ED000A00F51F600BF082FD07
:1007E00003980899B1F9302900EE102AB8EEC00A32
:1007F00001F62421D1ED000A00F69A200BF072FDDB
:10080000DDF810C00898D0F83E0605900898D0F89A
:10081000860806900898D0F8CE0A07909DED052A24
:100820009DED061A9DED070ABDEEC22A12EE102AB2
:10083000BDEEC11A11EE103ABDEEC00A10EE100A5C
:100840006946C1F804C0086043F66870C2F200004F
:100850004FF4007100F054FF0AB080BD82B00190E7
:10086000009141F6C441C2F200010020C4F2FA50E6
:10087000C86041F6BF40C2F200000078012805D1EF
:10088000FFE70098007B032805D0FFE70098007B76
:10089000022812D1FFE7019947F20000CCF2F8508C
:1008A000C1F8C40441F6C441C2F20001C868019A0B
:1008B000C2F80C07012008760CE001990020C1F86D
:1008C000C4040199C1F80C0741F6C441C2F2000109
:1008D0000876FFE702B0704780B582B0019041F61C
:1008E000C140C2F200000078012809D0FFE701985A
:1008F0000AF008FA41F6C141C2F200010870FFE7B0
:1009000042F25400C2F20000007840BBFFE70198B9
:10091000B0F9A01400EE101AB8EEC00A00F2C440FC
:1009200080ED000A0198B0F9E81600EE101AB8EE52
:10093000C00A00F20C7080ED000A0198B0F92C1981
:1009400000EE101AB8EEC00A00F6541080ED000A4E
:1009500041F6C041C2F2000100200870FFE741F6F5
:10096000C441C2F200010020C4F2A07088600020DF
:10097000C4F2E150C8600120087108750199002097
:10098000C1F8C4040199C1F80C07019800F63C11A4
:1009900091ED000AB8EEC00A00F6541080ED000A8E
:1009A00002B080BD83B0029001918DF803200198C0
:1009B000407B022810D1FFE740F20000C2F20000A5
:1009C0000078022807D0FFE741F6C441C2F20001D7
:1009D00001200861FFE719E00198407B012807D159
:1009E000FFE741F6C441C2F20001012008610CE0BA
:1009F0000198407B032807D1FFE741F6C441C2F2CA
:100A0000000100200861FFE7FFE7FFE741F6C4406F
:100A1000C2F200000069012836DBFFE741F6C4405E
:100A2000C2F20000007E78B3FFE70298D0F83C19CC
:100A3000A1F5104100EE101AB8EEC00A00F65410ED
:100A400080ED000A0198407B02281CD1FFE7029844
:100A500000F63C1191ED000AB8EEC00A41F6C4411F
:100A6000C2F2000191ED021A91ED042AB8EEC22AF9
:100A700021EE021A30EE410A00F6541080ED000A11
:100A800000200861FFE7FFE70198407B40F200018A
:100A9000C2F20001087003B07047000080B500206A
:100AA000C4F202001021012203F02AFC80BD0000E4
:100AB00080B50020C4F202001021002203F020FCC7
:100AC00080BD00007047000080B540F20040C4F2D5
:100AD00002000122114603F013FC80BD80B540F2F4
:100AE0000040C4F202000121002203F009FC80BD95
:100AF0007047000080B582B0ADF80600FFE7BDF892
:100B00000600411EADF8061028B1FFE74FF47A70D9
:100B100000F004F8F3E702B080BD000086B0ADF845
:100B200016000020049003900290019000904EF275
:100B30001400CEF2000000680090BDF81600C0EB73
:100B40000010400104904EF21800CEF20000006840
:100B50000390FFE74EF21800CEF20000006802900A
:100B60000298039988421ED0FFE7029803998842B1
:100B700007D2FFE703980299411A019808440190AF
:100B800008E000980299401A03990144019808442A
:100B90000190FFE70298039001980499884201D3DD
:100BA000FFE701E0FFE7D5E706B0704780B582B008
:100BB00000208DF80700FFF785FFFFF799FF15F07C
:100BC00093FB01469DF8070008438DF8070015F0D8
:100BD00053FC01469DF8070008438DF807009DF877
:100BE000070002B080BD000080B588B00790069174
:100BF00005920020009004900390FFF759FF922087
:100C000000F006F9122003A90191062200F0CCF8A9
:100C1000FFF744FF9DF80C009DF80D1040EA0120FD
:100C2000ADF80A00BDF90A0000EE100AB8EEC00ADD
:100C300040F20400C2F2000090ED001A20EE010A1A
:100C4000069981ED000A9DF80E109DF80F2041EAEB
:100C50000221ADF80A10BDF90A1000EE101AB8EE24
:100C6000C00A90ED001A20EE010A069981ED010AF2
:100C70009DF810109DF8112041EA0221ADF80A10EC
:100C8000BDF90A1000EE101AB8EEC00A90ED001A75
:100C900020EE010A069880ED020AFFF71FFF009878
:100CA0000199082200F080F8FFF70EFF9DF80C0074
:100CB0000F2844D1FFE79DF80E009DF80F1040EA81
:100CC0000120ADF80A00BDF90A0000EE100AB8EEE6
:100CD000C00A40F20800C2F2000090ED001A20EEB7
:100CE000010A079981ED000A9DF810109DF8112066
:100CF00041EA0221ADF80A10BDF90A1000EE101AFF
:100D0000B8EEC00A90ED001A20EE010A079981EDB5
:100D1000010A9DF812109DF8132041EA0221ADF856
:100D20000A10BDF90A1000EE101AB8EEC00A90EDD4
:100D3000001A20EE010A079880ED020AFFE7FFF78C
:100D4000B7FEA22000F064F8222003A9022200F0DE
:100D50002BF8FFF7A3FE9DF80C009DF80D10C000C6
:100D600040EA5110ADF80A00BDF90A00B0F5806FF5
:100D700007DBFFE7BDF80A00A0F50060ADF80A0048
:100D8000FFE7BDF90A0000EE100AB8EEC00AB4EEA3
:100D9000001A20EE010AB3EE071A30EE010A059898
:100DA00080ED000A08B080BD80B584B08DF80F00DA
:100DB00002918DF807209DF80F0040F0800000F0B0
:100DC00027F8FFE79DF8070070B1FFE7552000F016
:100DD0001FF8029908700298013002909DF80700F0
:100DE00001388DF80700EDE704B080BD80B582B012
:100DF0008DF8070000919DF8070040F0800000F09A
:100E000007F8552000F004F80099087002B080BD82
:100E100080B582B08DF8070069464FF47A7008609B
:100E200044F66400C2F200000DF107010DF1060264
:100E3000012305F089FE9DF8060002B080BD000088
:100E400080B582B08DF807008DF806109DF8070078
:100E5000FFF7DEFF9DF80600FFF7DAFF02B080BD66
:100E600080B582B001900198006841F20041C4F25F
:100E70000001884210D1FFE740F2EC02C2F200020A
:100E800010780130107044F6BC00C2F2000040F24D
:100E9000012100F041FAFFE702B080BD80B588B0C3
:100EA00007900798006844F60001C4F200018842E8
:100EB00052D1FFE744F60430C2F200000068006837
:100EC00000F010010020B0EB111F44D0FFE700201C
:100ED000ADF81A00FFE70020059044F60430C2F296
:100EE0000000016809680591006840680590059850
:100EF000FFE744F60430C2F2000001680968ADF86B
:100F00001A1001684968ADF81A1006F0D9FE44F2CB
:100F10003820C2F200000068406813280FD1FFE7B4
:100F200041F63050C2F2000043F24C61C2F20001BF
:100F300042F2E002C2F200020CF084F8FFE744F64D
:100F40000430C2F2000041F63051C2F20001252205
:100F500007F0F8FBFFE7FFE70798006841F2004160
:100F6000C4F20101884234D1FFE743F6A430C2F253
:100F70000000027841F6C030C2F20000019043F256
:100F80003C51C2F200010DF043F8019944F648309B
:100F9000C2F200000290FF2207F0D4FB0298006822
:100FA000006800F010010020B0EB111F10D0FFE727
:100FB000FFE70020049044F64830C2F200000168C8
:100FC000096804910068406804900498FFE7FFE70F
:100FD000FFE70798006841F20001C4F2010188426E
:100FE00021D1FFE744F67C20C2F2000000680068CF
:100FF00000F010010020B0EB111F13D0FFE743F207
:10100000F852C2F2000202F130000090002113F009
:101010009BFB009944F67C20C2F20000142207F0EA
:1010200091FBFFE7FFE708B080BD0000FFE7FEE7A8
:1010300080B543F64070C2F2000001F08DFE80BD25
:1010400080B543F66870C2F2000001F085FE80BDF5
:1010500080B582B00190019800F082FF41F62050E7
:10106000C2F2000000F1080243F64070C2F2000034
:1010700040F2312115F0A4FA012002B080BD000039
:1010800080B58EB00C90002003908DF814008DF880
:1010900015008DF816008DF817008DF810008DF8EA
:1010A00011008DF812008DF813008DF82C008DF8CA
:1010B0002D008DF82E008DF82F008DF828000821C6
:1010C0008DF829108DF82A008DF82B008DF824005A
:1010D0008DF825008DF826008DF827008DF820006A
:1010E0008DF821008DF822008DF823008DF81C006A
:1010F0008DF81D008DF81E008DF81F008DF818006A
:101100008DF819108DF81A008DF81B000C9809F055
:101110000DFC20B9FFE700208DF837006BE00C983C
:1011200009F0B6FC20B9FFE700208DF8370062E037
:101130000C982021232205AB09F020FD0C982421D6
:10114000272204AB09F01AFD0C980021019103221B
:101150000BAB09F013FD0C980421009107220AAB98
:1011600009F00CFD0C9808210B2209AB09F006FDD3
:101170000C981021132208AB09F000FD0C981421E3
:10118000172207AB09F0FAFC0C9818211B2206ABBA
:1011900009F0F4FC009A0C98602109F0D1FC0C983D
:1011A00070210122029209F0CBFC019A0C982A21AD
:1011B00009F0C6FC0C982921912209F0C1FC029A81
:1011C0000C98282109F0BCFC019A0C982C2109F0FC
:1011D000B7FC029A0C982B2109F0B2FC0C9809F08C
:1011E00083FC20B9FFE700208DF8370003E00120E1
:1011F0008DF83700FFE79DF837000EB080BD000086
:1012000080B588B007900691002000908DF81700F7
:101210008DF81400049003900290079809F070FB79
:10122000014600988DF804109DF80410B0EB911F52
:101230006ED0FFE79DF804104FF0FF3000EB9110E7
:101240006FF00201084207D1FFE70798902102AA38
:101250000D2309F0D9FB0EE09DF804100220B0EB3D
:10126000911F07D1FFE70798942102AA0D2309F0E7
:10127000CBFBFFE7FFE79DF80400C0F3C1000228A5
:1012800011D1FFE70699022008709DF808209DF80B
:1012900009309DF80A009DF80B1015F0F9F9069930
:1012A000C1F801000CE00699012008709DF80800C3
:1012B0009DF8091015F02AFA0699C1F80100FFE718
:1012C0009DF80C00069948719DF80D0006998871EB
:1012D0009DF80E000699C8719DF80F0006990872D6
:1012E0009DF81000069948729DF8110006998872C1
:1012F0009DF812000699C8729DF8130006990873AC
:101300009DF814000699487301208DF81700FFE737
:101310009DF8170008B080BD80B584B00390ADF88B
:101320000A10019244F6C851C2F20001012008706F
:10133000BDF90A00C1F8010008204871019A10683F
:101340005268C1F80A20C1F80600039800F002F8BC
:1013500004B080BD80B588B00790069100208DF85C
:10136000170044F68C31C2F2000108704870887092
:10137000C870079809F064FB014643F66830C2F272
:101380000000017000788008C007F0B9FFE70699F7
:10139000D1F80100097844F68C32C2F200020492BE
:1013A00015F026F9049A079806994B790631EC4610
:1013B000CCF80010402109F0E1FA0798812109F0EA
:1013C00055FB01208DF817004FE043F66830C2F25C
:1013D000000000780009C007F0B9FFE70699D1F8CE
:1013E0000100097844F68C32C2F20002039215F033
:1013F000FFF8039A079806994B790631EC46CCF82A
:101400000010422109F0BAFA0798822109F02EFB58
:1014100001208DF8170027E043F66830C2F2000083
:1014200000788009C007F0B9FFE70699D1F80100FC
:10143000097844F68C32C2F20002029215F0D8F814
:10144000029A079806994B790631EC46CCF80010C1
:10145000442109F093FA0798842109F007FB012041
:101460008DF81700FFE7FFE7FFE79DF8170008B0CA
:1014700080BD000080B590B00E2003900F900B90BF
:1014800001210E9100200C900D910690079008907C
:1014900009900B900A9043F64070C2F20000019050
:1014A00006A9029101F08AFA019802F0A3F80198C6
:1014B0000221049101F0A0F9029903980F900B907A
:1014C00043F66870C2F20000059001F077FA0598C3
:1014D00002F090F80499059801F08EF910B080BDE3
:1014E00084B08DF80F000291ADF806209DF80F0032
:1014F0000146009123281DD80099DFE801F012135E
:101500001415161B1B1B1B1B1B1B1B1B1B1B1B1B3D
:101510001B1B1B1B1B1B1B1B1B1B1B1B1B1B171822
:10152000191A08E007E006E005E004E003E002E045
:1015300001E000E0FFE7002004B0704700207047A2
:1015400080B582B043F6D430C2F20000009042F67B
:101550003C51C2F20001002201920FF01FFF0098DF
:1015600042F23C51C2F200010FF0FAFE019802B0C3
:1015700080BD000080B584B003900291039943F6CA
:10158000D430C2F2000001900FF0EAFE01980FF093
:101590008DFE002004B080BD83B0029001918DF8D3
:1015A000032000208DF802009DF9020003B070476F
:1015B00080B586B00490ADF80E1000208DF80D00B7
:1015C00043F6D430C2F20000D0F8BC020290029878
:1015D000D0F8140220B1FFE701208DF8170013E0C6
:1015E0000499BDF80E2043F6D430C2F200000190F9
:1015F0000FF0D4FE01980FF0DBFF8DF80D009DF881
:101600000D008DF81700FFE79DF8170006B080BDAC
:1016100080B588B0DDF830C0DDF82CC0DDF828C01A
:10162000079006918DF81720049307980C99049A57
:101630000A9BDDF82CC0EE46CEF800C013F0EAF9A4
:101640000699CD2008700798016843F6A830C2F2C9
:101650000000029001600178069A51704178069A64
:1016600091708178069AD170C178069A11710799A4
:10167000496801600178069A51714178069A917122
:101680008178069AD171C178069A11720799497FBB
:10169000069A51720799896901600178069A9172D8
:1016A0004178069AD1728178069A1173C0780699AA
:1016B00048730798007F069988730699DC20C873E1
:1016C0009DF8170038B9FFE706981421FFF770FF5F
:1016D0008DF80F0010E09DF8170001280BD1FFE7EF
:1016E000069944F67C20C2F20000142207F06EF83E
:1016F0008DF80F00FFE7FFE7012008B080BD000074
:1017000010B586B08C46864609980899CDF814E045
:10171000ADF812C0ADF81020ADF80E30ADF80C10D9
:10172000ADF80A009DF811008DF802009DF8100038
:101730008DF803009DF80F008DF804009DF80E0051
:101740008DF805009DF80D008DF806009DF80C0041
:101750008DF807009DF80B008DF808009DF80A0031
:101760008DF809000598BDF812100DF1020214F071
:1017700027FF06B010BD000082B0009000990878E5
:1017800001380870009890F90000042806DCFFE793
:101790000099002008708DF8070003E001208DF803
:1017A0000700FFE79DF8070002B0704780B544F2DC
:1017B0003820C2F2000002F0B1F880BD80B544F2DA
:1017C0007810C2F2000002F0A9F880BD80B544F2A2
:1017D000D810C2F2000002F0A1F880BD80B544F23A
:1017E0005800C2F2000002F099F880BD80B544F2C2
:1017F0009820C2F2000002F091F880BD80B543F657
:101800009870C2F2000002F089F880BD80B543F6FE
:10181000F870C2F2000002F081F880BD80B544F299
:10182000B800C2F2000002F079F880BD80B544F241
:10183000F820C2F2000002F071F880BD80B544F2D9
:101840001810C2F2000002F069F880BD82B0019069
:101850000198007810384AF6AB21CAF6AA21A0FBFD
:1018600001100009009000994BF6B030C0F601005D
:10187000405C0199C8650098042807D3FFE70199E7
:101880000868042262F30900886506E00199086887
:1018900040F2FF3290438865FFE70198806D02B007
:1018A0007047000086B0059000208DF81300059861
:1018B000806A03900598806910BBFFE70398029047
:1018C00003281BD80299DFE801F0020D02180598E1
:1018D00090F82F00C00720B1FFE701208DF813001A
:1018E000FFE70CE00598C06AB0F1C07F04D1FFE7C4
:1018F00001208DF81300FFE701E000E0FFE745E07D
:1019000005988069B0F5005F25D1FFE70398019045
:1019100003281ED80199DFE801F002060211012018
:101920008DF8130016E0059890F82F00C00720B13D
:10193000FFE701208DF81300FFE70BE00598C06A70
:10194000B0F1C07F04D1FFE701208DF81300FFE75D
:1019500000E0FFE719E003980090032804D3FFE7B5
:101960000098032804D00EE001208DF813000BE04E
:10197000059890F82F00C00720B1FFE701208DF8EF
:101980001300FFE700E0FFE7FFE7FFE79DF8130024
:1019900006B0704784B003900291019200930398BF
:1019A0000168086820F4802008600098039909689D
:1019B000486003988068402809D1FFE7019803999F
:1019C00009688860029803990968C86008E002986D
:1019D000039909688860019803990968C860FFE75E
:1019E00004B0704782B00090009991F870000138FF
:1019F00081F87000009890F97000042807DCFFE778
:101A00000099002081F870008DF8070003E00120A4
:101A10008DF80700FFE79DF8070002B0704700004F
:101A200081B041F20400CEF20000006800900098FE
:101A300041F61851C2F200010968884208D2FFE756
:101A400041F61C51C2F20001086801300860FFE74E
:101A5000009841F61851C2F20001086001B07047C9
:101A600080B584B0039041F20400CEF2000000681B
:101A70000290029803990968401A00EE100AB8EE25
:101A8000400A41F60050C2F2000090ED001AB8EE94
:101A9000411A80EE010A8DED010A0298039908604F
:101AA000FFF7BEFF9DED010A04B080BD80B582B096
:101AB00000F066F842F21010C2F20000016883885C
:101AC0004FF47A7201FB023100EE101AB8EE401AA0
:101AD000C08800EE100AB8EEC00A9FED062A20EE7C
:101AE000020A30EE010A8DED010A9DED010A02B0F5
:101AF00080BD00BF6F12833A81B000904EF6FC515A
:101B0000CEF20001086840F08070086041F20401E4
:101B1000CEF200010020086041F20002CEF2000285
:101B2000116841F001011160009944F24022C0F2B5
:101B30000F024A4341F60051C2F200010A600A68EE
:101B400044F6D353C1F26203A2FB0332920941F679
:101B50000453C2F200031A6009684DF68362C4F2AE
:101B60001B32A1FB0221890C41F60852C2F200028D
:101B7000116041F61C51C2F20001086001B07047CB
:101B8000B0B586B041F20400CEF2000000680590C6
:101B9000FFF746FF41F61C50C2F2000001680598AD
:101BA000002302934FF0FF3C1A46E1FB0C0241F682
:101BB0001051C2F2000100914A600860086849684B
:101BC00041F60054C2F200042268FEF76DFB029B4E
:101BD00002468C46009941F64850C2F20000C0F817
:101BE00004C00260D1F800C04968D0F800E0426843
:101BF0002468AEFB04E502FB0452BCEB0E0C61EB67
:101C0000020241F65051C2F200010391C1F800C036
:101C10004A60006842F21012C2F2000204921060A0
:101C20000868496841F60452C2F200020192126843
:101C3000FEF73AFBDDF804C0029B049A01460398C4
:101C40009180016840689288DCF800C002FB0CF2C9
:101C50008A1A60F1000041F65851C2F200010A6090
:101C600048600868496841F60852C2F200021268EA
:101C7000FEF71AFB0499C88006B0B0BD704700009B
:101C800080B582B044F6BC00C2F20000009044F679
:101C90007851C2F2000112F023FF8DF807000220F4
:101CA00002F036F9009812F08DFF02B080BD0000FE
:101CB00081B0EFF3108072B60090FFE7FEE70000FE
:101CC00080B588B0A820FFF717FFFFF7D3FB44F6D5
:101CD000BC00C2F20000FFF7D3F943F6B831C2F2FC
:101CE0000001087044F63420C2F2000005F0DEFA6C
:101CF00044F6EC10C2F20000082105F0E3FE44F2C5
:101D0000B800C2F20000019001F0AEFD44F21810DC
:101D1000C2F20000029001F0A7FD019801F08EFFD1
:101D2000029801F08BFF44F67C20C2F2000005F01F
:101D3000C7FF44F23820C2F20000039001F094FD86
:101D4000039801F07BFF44F60430C2F200000490D7
:101D500005F0B6FF04980268D16841F01001D16027
:101D600041F63051C2F20001252206F0EBFC44F2AC
:101D70009820C2F20000059001F076FD44F2F820B0
:101D8000C2F20000069001F06FFD059801F056FFC9
:101D9000069801F053FF44F64830C2F2000005F007
:101DA0008FFF09F001FE40F63C01C4F200010791EB
:101DB000322008604FF4FA7002F05AF807990020B8
:101DC000086008B080BD000084B002900191ADF8B9
:101DD0000220029828B9FFE74FF6FF70ADF80E0019
:101DE00021E0FFE70198411E0191B8B1FFE7029899
:101DF000411C029100788DF80100BDF802109DF899
:101E000001004840C2B24CF2C050C0F6010030F8A8
:101E1000120080EA1120ADF80200E3E7BDF80200ED
:101E2000ADF80E00FFE7BDF80E0004B070470000EB
:101E300082B00190ADF802108DF80120FFE7BDF8E7
:101E40000200411EADF8021098B1FFE79DF80100B5
:101E500001994A1C0192097848408DF800009DF8CC
:101E600000104BF6B020C0F60100405C8DF8010078
:101E7000E5E79DF8010002B07047000041F66060A0
:101E8000C2F2000090ED690A7047000041F6606000
:101E9000C2F2000090ED680A7047000080B584B07F
:101EA00047F61020C1F6FF700068039047F6142033
:101EB000C1F6FF700068029047F61820C1F6FF7067
:101EC000006801900199039808440390039888B131
:101ED000FFE7039840F2AC11C2F200010091023119
:101EE000082207F009FF009902981231042207F036
:101EF00003FFFFE704B080BD41F66060C2F200005E
:101F000090ED6A0A7047000041F66060C2F200007E
:101F100090ED6B0A7047000082B00190ADF802109E
:101F20000198007841F62051C2F200010870019832
:101F3000407848700198807888700198C078C8709F
:101F40000198007908710198407948710198807969
:101F500088710198C079C871002002B070470000F4
:101F600082B001900198428841F62051C2F20001EE
:101F7000009108896FF3DF2200F478401044088153
:101F800043F6B930C2F20000B0F813300A891344A6
:101F90006FF3DF2302F478421A440A81019A93888E
:101FA0004A896FF3DF2302F478421A444A81B0F879
:101FB00015304A8913446FF3DF2302F478421A4440
:101FC0004A81019A53898A896FF3DF2302F47842A8
:101FD0001A448A81B0F81720888902446FF3DF22FF
:101FE00000F4784010448881019890F844008009FA
:101FF000C00738B9FFE7019890F84500C008C0074E
:1020000088B1FFE741F62051C2F20001088900F4CF
:1020100078400881488900F478404881888900F434
:1020200078408881FFE7019890F84500C007A8B183
:10203000FFE741F62051C2F20001088942426FF3E6
:10204000DF2200F4784010440881488942426FF34F
:10205000DF2200F4784010444881FFE742F2E000BC
:10206000C2F20000C168C1F3807341F62051C2F290
:1020700000018A7B02F0FD0242EA43028A73C268D1
:10208000C2F380538A8922F4006242EAC3228A8121
:10209000C268C2F3C0538A8922F4805242EA0332F2
:1020A0008A81019A92F844C08A7B202303EA5C0368
:1020B00002F0DF021A448A73019A92F845308A8945
:1020C0006FF3DF3242EAC3328A81019A92F83E30DE
:1020D0008A7B03F0010302F0EF0242EA03128A73E3
:1020E000019A92F84520C2F340038A7B02F0FE0277
:1020F0001A448A73019A92F84420C2F300138A8921
:1021000022F4005242EA43328A81C068C0F340524E
:10211000887B00F0F70040EAC2008873019890F8CD
:102120003E30C87B022202EAD30200F0FD001044D8
:10213000C87342F25400C2F200000278C87B00F07B
:102140007F0040EAC210C87343F2F850C2F20000A8
:10215000007A00F00102C87B00F0BF0040EA821064
:10216000C873012002B0704785B00390029100202F
:102170000190FFE7039890F83C00012804D1FFE7A5
:1021800002208DF81300F7E00399012081F83C004C
:10219000FFE7FFE7029800680A281CD3FFE70298D0
:1021A000008800EB4000A0F11E01072000FA01F2B8
:1021B00003980168C8689043C860029988680988D4
:1021C00001EB41011E3900FA01F203980168C86869
:1021D0001043C86018E00298008800EB4001072017
:1021E00000FA01F2039801680869904308610299B6
:1021F0008868098801EB410100FA01F2039801683F
:10220000086910430861FFE70298406806281BD858
:10221000FFE70298406800EB8000411F1F2000FA92
:1022200001F203980168486B90434863029908885B
:10223000496801EB8101053900FA01F20398016850
:10224000486B104348633DE0029840680C281CD856
:10225000FFE70298406800EB8000A0F123011F20F7
:1022600000FA01F203980168086B90430863029931
:102270000888496801EB8101233900FA01F20398CB
:102280000168086B104308631BE00298406800EB8C
:102290008000A0F141011F2000FA01F203980168BB
:1022A000C86A9043C86202990888496801EB8101B5
:1022B000413900FA01F203980168C86A1043C86204
:1022C000FFE7FFE742F20030C4F2010000900398FC
:1022D000006842F20001C4F2010188420BD1FFE71D
:1022E00002980068122806D1FFE70099486840F478
:1022F00080004860FFE70398006842F20001C4F2E2
:10230000010188422ED1FFE702980068102805D00D
:10231000FFE702980068112824D1FFE70099486878
:1023200040F40000486002980068102819D1FFE7C7
:1023300040F2E800C2F2000000684DF68361C4F28A
:102340001B31A0FB0110800C00EB800040000190CD
:10235000FFE7019820B1FFE7019801380190F8E705
:10236000FFE7FFE7FFE70399002081F83C00FFE764
:1023700000208DF81300FFE79DF8130005B07047AB
:1023800081B0009000980068C06C01B070470000F8
:1023900080B584B0029000208DF80700029820B923
:1023A000FFE701208DF80F0042E00298806A0121CA
:1023B000C0F60071884201D0FFE7FFE70298006C89
:1023C00050B9FFE7029800F037F8029900204864FE
:1023D000029981F83C00FFE70298006CC0060028D3
:1023E00017D4FFE70298006C40F0020020F48850F8
:1023F000029908640298FEF7E3F802990020486405
:102400000298006C40F0010020F00200029908647C
:1024100003E001208DF80700FFE7FFE702990020A5
:1024200081F83C00FFE79DF807008DF80F00FFE7FB
:102430009DF80F0004B080BD80B58AB009900020DF
:10244000089007900690059004900998006842F261
:102450000001C4F20101884212D1FFE7FFE700202A
:10246000039043F64400C4F20200016841F4807115
:102470000160006800F4807003900398FFE73AE081
:102480000998006842F20021C4F20101884231D16A
:10249000FFE7FFE70020029043F64400C4F2020089
:1024A000016841F480610160006800F4806002907E
:1024B0000298FFE7FFE70020019043F63000C4F2E6
:1024C0000200016841F020010160006800F0200076
:1024D00001900198FFE74FF480600490032005907D
:1024E0000020069041F20040C4F2020004A901F06D
:1024F0002BFDFFE7FFE70AB080BD000080B584B088
:1025000002900191002000900298006880684005C8
:10251000002816D5FFE7029800688068C0050028EB
:102520000FD5FFE70299086C40F020000864FFE730
:102530000299002081F83C00FFE701208DF80F0090
:102540006DE001F0F5FE0090FFE70298006800687A
:1025500000F00200022829D0FFE70198013020B3E3
:10256000FFE7019840B1FFE701F0E2FE0099401A51
:102570000199884218D9FFE702980068006800F0C6
:10258000020002280FD0FFE70299086C40F0040017
:102590000864FFE70299002081F83C00FFE7032070
:1025A0008DF80F003BE0FFE7FFE7CEE702980168F8
:1025B0006FF0120008600299086C40F40070086423
:1025C00002980068806810F0405F24D1FFE702980D
:1025D000007E00BBFFE702980068C06A10F4700F2D
:1025E00007D0FFE70298006880684005002812D4F1
:1025F000FFE70299086C20F4807008640298006C70
:10260000C004002806D4FFE70299086C40F00100DE
:102610000864FFE7FFE700208DF80F00FFE79DF853
:102620000F0004B080BD000084B002900020019033
:10263000FFE7029890F83C00012804D1FFE7022050
:102640008DF80F00D4E00299012081F83C00FFE7EB
:10265000FFE7029800688068C007F0B9FFE70298BA
:102660000168886840F00100886040F2E800C2F22A
:10267000000000684DF68361C4F21B31A0FB01101D
:10268000800C00EB40000190FFE7019820B1FFE7CC
:10269000019801380190F8E7FFE702980068806828
:1026A000C007002800F09580FFE70298006C40F416
:1026B000807040F2016188430299086402980068C2
:1026C00040684005002809D5FFE70298006C40F4F7
:1026D000805020F4005002990864FFE70298006CD3
:1026E000C004002806D5FFE70299486C20F00600D8
:1026F000486403E0029900204864FFE7FFE702997D
:10270000002081F83C00FFE742F20030C4F20100F3
:102710000090029801686FF02200086000984068FD
:10272000C006E8BBFFE70298006842F20001C4F26D
:102730000101884224D0FFE70298006842F20011AC
:10274000C4F20101884208D1FFE742F20430C4F22A
:1027500001000068C00698B1FFE70298006842F2E5
:102760000021C4F20101884219D1FFE742F204308E
:10277000C4F20100006800F01F000F280FD8FFE727
:1027800002980068806810F0405F07D1FFE7029868
:102790000168886840F080408860FFE7FFE717E045
:1027A0000298006842F20001C4F2010188420ED191
:1027B000FFE702980068806810F0405F07D1FFE7EC
:1027C00002980168886840F080408860FFE7FFE772
:1027D0000AE00299086C40F0100008640299486C05
:1027E00040F001004864FFE700208DF80F00FFE78C
:1027F0009DF80F0004B0704784B0029001910298D8
:1028000090F820008DF803009DF80300012805D002
:10281000FFE79DF8030002280AD1FFE7019A02981A
:10282000016848691043486100208DF80F0008E0F6
:102830000299486A40F48020486201208DF80F0018
:10284000FFE79DF80F0004B07047000088B00690C5
:10285000059104920393069890F820008DF80700E4
:1028600006980068806800900598806808B9FFE7BE
:1028700000E0FFE79DF80700012806D0FFE79DF87C
:102880000700022840F08D80FFE79DF80300400715
:1028900000280CD4FFE79DF803000007002806D4A9
:1028A000FFE79DF80300C006002871D5FFE70098F8
:1028B000C0F3016002900298032809D3FFE706994C
:1028C000486A40F40000486201208DF81F0071E062
:1028D000029901208840039908600598806868B9CA
:1028E000FFE705980168C06840EA41500699096809
:1028F000029A01EB0211C1F880010EE005994A68C5
:102900008868C96840EAC200084306990968029AC3
:1029100001EB0211C1F88001FFE7059800690699F3
:102920000968029A01EB0211C1F884010598007D43
:1029300001280CD1FFE706980068029900EB01110D
:10294000D1F8840140F48070C1F88401FFE7049855
:10295000406806990968029A01EB0211C1F88C01DE
:102960000498006806990968029A01EB0211C1F8FF
:10297000880106980068029900EB0111D1F88001E6
:1029800040F00100C1F8800100208DF81F0011E027
:102990000699486A40F40010486201208DF81F0033
:1029A00008E00699486A40F48020486201208DF8CA
:1029B0001F00FFE79DF81F0008B0704786B0049025
:1029C0000391049800680190049890F820008DF815
:1029D00003009DF80300012806D0FFE79DF80300DF
:1029E000022840F0B080FFE746F20040C4F2000049
:1029F00001900199D1F8000240F00100C1F80002F5
:102A00000199D1F8000220F47C50C1F8000203982B
:102A1000426A0199D1F8000240EA0220C1F800029E
:102A20000398406900F01F01012088400290029A3B
:102A30000199D1F81C029043C1F81C020398C069A7
:102A4000F0B9FFE7029A0199D1F80C029043C1F85E
:102A50000C02039A9088D168526940EA01400199BA
:102A600001EBC201C1F84002039A108891685269D3
:102A700040EA0140019901EBC201C1F84402FFE7BD
:102A80000398C06901281ED1FFE7029A0199D1F885
:102A90000C021043C1F80C02039A90881168526925
:102AA00040EA0140019901EBC201C1F84002039ADA
:102AB00090899168526940EA0140019901EBC20195
:102AC000C1F84402FFE70398806940B9FFE7029A22
:102AD0000199D1F804029043C1F8040207E0029A78
:102AE0000199D1F804021043C1F80402FFE70398EA
:102AF000006940B9FFE7029A0199D1F814029043A6
:102B0000C1F8140207E0029A0199D1F814021043A7
:102B1000C1F81402FFE70398006A012808D1FFE713
:102B2000029A0199D1F81C021043C1F81C02FFE778
:102B30000199D1F8000220F00100C1F80002002044
:102B40008DF8170008E00499486A40F48020486234
:102B500001208DF81700FFE79DF8170006B07047B9
:102B600081B0009001B0704786B00490039102924A
:102B70000193049890F820008DF803009DF803005D
:102B8000012806D0FFE79DF80300022840F0D78017
:102B9000FFE7039880B9FFE704980068C0688007E2
:102BA00048B9FFE70499486A40F4001048620120E0
:102BB0008DF81700CCE00FE00498006800698007EA
:102BC00048B9FFE70499486A40F4001048620120C0
:102BD0008DF81700BCE0FFE704980068039900EB4C
:102BE0000110D0F8B00100F004000299886002984A
:102BF000806858B9FFE704980068039900EB01105A
:102C0000D0F8B001400D029908600AE0049800680D
:102C1000039900EB0110D0F8B001C0080299486098
:102C2000FFE704980068039900EB0110D0F8B001A9
:102C300000F002000299C86004980068039900EB54
:102C40000110D0F8B40100F00F0002990861049857
:102C50000068039900EB0110D0F8B40180B2000ABB
:102C60000299886104980068039900EB0110D0F87C
:102C7000B401000C0299486104980068039900EBC4
:102C80000110D0F8B8010199087004980068039900
:102C900000EB0110D0F8B801000A019948700498BF
:102CA0000068039900EB0110D0F8B801000C0199FD
:102CB000887004980068039900EB0110D0F8B801FF
:102CC000000E0199C87004980068039900EB011088
:102CD000D0F8BC010199087104980068039900EBD1
:102CE0000110D0F8BC01000A0199487104980068ED
:102CF000039900EB0110D0F8BC01000C0199887118
:102D000004980068039900EB0110D0F8BC01000E94
:102D10000199C871039838B9FFE704980168C86839
:102D200040F02000C86006E004980168086940F09F
:102D300020000861FFE700208DF8170008E00499E3
:102D4000486A40F48020486201208DF81700FFE7B0
:102D50009DF8170006B0704780B58AB00990002032
:102D600008900998006840690790099800684068D1
:102D70000690099800688068059009980068C06806
:102D800004900998006800690390099800688069B8
:102D900002909DF81C00C007002800F09480FFE717
:102DA0009DF81400C00758B3FFE709980168012097
:102DB00088609DF814008007002804D5FFE7099873
:102DC00000F062FC1BE09DF814004007002805D5C8
:102DD000FFE7089840F4006008900FE09DF81400A9
:102DE0000007002805D5FFE7089840F480500890B8
:102DF00003E0099800F044FCFFE7FFE7FFE7FFE787
:102E00009DF81500C00760B3FFE7099801684FF40B
:102E1000807088609DF815008007002804D5FFE7C2
:102E2000099800F039FC1BE09DF8150040070028C8
:102E300005D5FFE7089840F4005008900FE09DF892
:102E400015000007002805D5FFE7089840F48040EA
:102E5000089003E0099800F01BFCFFE7FFE7FFE79D
:102E6000FFE79DF81600C00760B3FFE70998016807
:102E70004FF4803088609DF816008007002804D544
:102E8000FFE7099800F010FC1BE09DF816004007D2
:102E9000002805D5FFE7089840F4004008900FE0AF
:102EA0009DF816000007002805D5FFE7089840F4B4
:102EB0008030089003E0099800F0F2FBFFE7FFE79D
:102EC000FFE7FFE7FFE79DF81C000007002810D58B
:102ED000FFE79DF81000C006002809D5FFE7089815
:102EE00040F400700890099801681020C860FFE75E
:102EF000FFE79DF81C00400700280FD5FFE79DF86D
:102F000010000007002808D5FFE70998016808208D
:102F1000C860099800F0CCFAFFE7FFE79DF81C00B5
:102F2000800700280BD5FFE709980068C068800774
:102F300020B1FFE7099800F0BFFAFFE7FFE79DF82F
:102F40001C004006002810D5FFE79DF80C00C006C5
:102F5000002809D5FFE7089840F480600890099898
:102F6000016810200861FFE7FFE79DF81C0080065C
:102F700000280FD5FFE79DF80C000007002808D5B2
:102F8000FFE70998016808200861099800F026FB0E
:102F9000FFE7FFE79DF81C00C00600280BD5FFE700
:102FA000099800680069800720B1FFE7099800F0E0
:102FB00019FBFFE7FFE79DF81E00800700280FD5EB
:102FC000FFE79DF81800C006002808D5FFE709981C
:102FD000016810204860099800F008FBFFE7FFE750
:102FE0009DF81E00C00778B1FFE79DF818000007A4
:102FF000002808D5FFE7099801680820486009986B
:1030000000F056FBFFE7FFE79DF81D0000060028D3
:1030100040F18D80FFE79DF818004007002840F13F
:103020008180FFE79DF81D00C00750B1FFE79DF8C4
:103030000800C00728B1FFE7089840F00100089099
:10304000FFE79DF81D00800700280BD5FFE79DF8DE
:1030500008008007002805D5FFE7089840F0020027
:103060000890FFE79DF81D00400700280BD5FFE7FB
:103070009DF808004007002805D5FFE7089840F0B4
:1030800004000890FFE79DF81D000007002848D5C0
:10309000FFE79DF8080010F0700F42D0FFE702989C
:1030A00000F0700001460191102814D0FFE701984C
:1030B000202815D0FFE70198302816D0FFE70198A7
:1030C000402817D0FFE70198502818D0FFE7019853
:1030D000602819D01DE0089840F00800089019E019
:1030E000089840F01000089014E0089840F0200084
:1030F00008900FE0089840F0400008900AE0089817
:1031000040F08000089005E0089840F48070089036
:1031100000E0FFE709980168886920F07000886185
:10312000FFE7FFE70998016804204860FFE7089877
:1031300048B1FFE7089A0999486A1043486209981C
:10314000FFF70EFDFFE70AB080BD000080B584B038
:103150000290029820B9FFE701208DF80F00E0E00F
:10316000029890F8200020B9FFE7029800F0DEF8FE
:10317000FFE702980168086840F00100086001F06C
:10318000D7F80190FFE7029800684068C007A8B927
:10319000FFE701F0CDF80199401A0B280DD3FFE7A6
:1031A0000299486A40F4003048620299052081F88B
:1031B000200001208DF80F00B3E0E4E702980168D9
:1031C000086820F00200086001F0B2F80190FFE703
:1031D0000298006840688007002815D5FFE701F0D5
:1031E000A7F80199401A0B280DD3FFE70299486A06
:1031F00040F4003048620299052081F82000012047
:103200008DF80F008DE0E3E70298007E012807D1DA
:10321000FFE702980168086840F08000086006E057
:1032200002980168086820F080000860FFE70298B3
:10323000407E012807D1FFE702980168086840F046
:103240004000086006E002980168086820F040002D
:103250000860FFE70298807E012807D1FFE7029807
:103260000168086840F02000086006E002980168E4
:10327000086820F020000860FFE70298C07E01285F
:1032800007D1FFE702980168086820F01000086085
:1032900006E002980168086840F010000860FFE747
:1032A0000298007F012807D1FFE7029801680868AB
:1032B00040F00800086006E002980168086820F005
:1032C00008000860FFE70298407F012807D1FFE768
:1032D00002980168086840F00400086006E002985F
:1032E0000168086820F004000860FFE7029B196885
:1032F0005A689868D3F80CC040EA0C00D3F810C0A4
:1033000040EA0C005B691843013A1043C861029916
:1033100000204862029A012182F820108DF80F00E7
:10332000FFE79DF80F0004B080BD000080B590B0AD
:103330000F9000200E900D900C900B900A900F981B
:10334000006846F20041C4F20001884249D1FFE71B
:1033500041F66450C2F2000001680131016000686A
:10336000012812D1FFE7FFE70020099043F6400053
:10337000C4F20200016841F000710160006800F0D1
:10338000007009900998FFE7FFE7FFE70020089029
:1033900043F63000C4F20200016841F00801016008
:1033A000006800F0080008900898FFE703200A90E2
:1033B00002210B91002103910C910D9009200E9098
:1033C00040F60040C4F202000AA900F0BDFD039AD5
:1033D00014200490052101F087F8049801F07AF890
:1033E00064E00F98006846F60001C4F200018842CC
:1033F0005BD1FFE7FFE70020079043F64000C4F2EF
:103400000200016841F080610160006800F08060A6
:1034100007900798FFE741F66450C2F20000016888
:10342000013101600068012812D1FFE7FFE70020A9
:10343000069043F64000C4F20200016841F00071BA
:103440000160006800F0007006900698FFE7FFE753
:10345000FFE70020059043F63000C4F20200016847
:1034600041F002010160006800F00200059005983B
:10347000FFE760200A9002200B90002001900C9042
:1034800003200D9009200E9040F20040C4F202008B
:103490000AA900F059FD019A40200290052101F08F
:1034A00023F8029801F016F8FFE7FFE710B080BD9F
:1034B00081B0009001B0704780B58AB0099009983A
:1034C00044F68653C2F20003002102AAFFF74CFB28
:1034D000099843F64071C2F20001884239D1FFE7F2
:1034E0000298019040F23221884228D0FFE70198EB
:1034F00040F20131884206D0FFE7019840F20231E4
:1035000088420ED024E040F25820C2F2000041F27E
:103510008841084444F68651C2F2000113F00CF9C8
:1035200016E040F25820C2F2000041F2F86108446F
:1035300044F68651C2F2000113F0FEF808E044F6AA
:103540008650C2F2000040F23221FEF7E5FCFFE7B0
:10355000FFE7099843F66871C2F2000188423BD147
:10356000FFE70298009040F2012188420CD0FFE76B
:10357000009840F20221884213D0FFE7009840F201
:10358000032188421AD026E040F25820C2F20000FF
:1035900000F5936044F68651C2F200010AF042FC45
:1035A00019E040F25820C2F2000000F5DC6044F659
:1035B0008651C2F200010AF035FC0CE040F25820BE
:1035C000C2F2000000F6281044F68651C2F2000153
:1035D0000AF0BCFBFFE7FFE70AB080BD81B00090B6
:1035E00001B0704781B0009001B0704781B0009089
:1035F00001B0704780B584B00290029890F8200026
:1036000001282FD1FFE70299022081F820000298BB
:103610000168086820F00100086000F089FE019050
:10362000FFE7029800684068C007A8B1FFE700F014
:103630007FFE0199401A0B280DD3FFE70299486AD3
:1036400040F4003048620299052081F820000120F2
:103650008DF80F000FE0E4E70299002048628DF832
:103660000F0008E00299486A40F4002048620120F7
:103670008DF80F00FFE79DF80F0004B080BD00003B
:1036800081B0009001B0704781B0009001B07047E8
:1036900081B0009001B0704781B0009001B07047D8
:1036A00081B0009001B0704781B0009001B07047C8
:1036B00081B0009001B0704780B582B00090009852
:1036C00020B9FFE701208DF8070011E0009840794C
:1036D00038B9FFE7009900200871009800F00CF855
:1036E000FFE700990120487100208DF80700FFE7EF
:1036F0009DF8070002B080BD82B00190019800687B
:1037000043F20001C4F20201884212D1FFE7FFE751
:103710000020009043F63000C4F20200016841F43A
:1037200080510160006800F4805000900098FFE72D
:10373000FFE702B07047000080B584B002900298A5
:10374000806D019000F0F4FD0090029890F8350033
:1037500002280DD0FFE7029980204865FFE7029913
:10376000002081F83400FFE701208DF80F0055E0BC
:1037700002980168086820F0160008600298016845
:10378000486920F0800048610298006C20B9FFE78A
:103790000298806C38B1FFE702980168086820F051
:1037A00008000860FFE702980168086820F001003F
:1037B0000860FFE7029800680068C007C8B1FFE72B
:1037C00000F0B6FD0099401A062811D3FFE70299D0
:1037D000202048650299032081F83500FFE702990F
:1037E000002081F83400FFE703208DF80F0015E07A
:1037F000E0E70298C16D3F208840019988600299F6
:10380000012081F83500FFE70299002081F834009B
:10381000FFE7FFE700208DF80F00FFE79DF80F009E
:1038200004B080BD82B00090009890F83500022866
:1038300007D0FFE700998020486501208DF8070038
:103840000EE00099052081F83500009801680868AD
:1038500020F001000860FFE700208DF80700FFE777
:103860009DF8070002B0704780B584B002900298BE
:1038700020B9FFE701208DF80F004BE0029890F887
:103880003500022804D1FFE702208DF80F0041E047
:1038900002980168086820F0010008600298016839
:1038A0000020009008600299096848600299096840
:1038B000886002990968C8600299096808610298DD
:1038C0000168212048610298FDF7C0FF0146009879
:1038D00001910299C86302990864029948640299A7
:1038E00088640299C864029908650299CA6D3F21EB
:1038F0009140019A916002994865029981F83500DA
:10390000FFE70299002081F83400FFE700208DF8DE
:103910000F00FFE79DF80F0004B080BD80B586B0B2
:1039200005900020039040F2E800C2F20000006819
:1039300048F2B511C1F64E31A0FB0110800A029089
:103940000598806D0190019800680490049805998D
:10395000C96DC840000700281AD5FFE70598006820
:1039600000684007002812D5FFE70598016808683D
:1039700020F0040008600598C16D08208840019976
:1039800088600599486D40F001004865FFE7FFE752
:1039900004980599C96DC840C007A0B1FFE7059814
:1039A00000684069000600280CD5FFE70598C16D46
:1039B00001208840019988600599486D40F0020017
:1039C0004865FFE7FFE704980599C96DC8404007BF
:1039D000002814D5FFE705980068006880070028D4
:1039E0000CD5FFE70598C16D0420884001998860D7
:1039F0000599486D40F004004865FFE7FFE704982B
:103A00000599C96DC840C006002847D5FFE705984D
:103A100000680068000700283FD5FFE70598C16DE2
:103A2000102088400199886005980068006840036C
:103A300000281AD5FFE705980068006800030028F1
:103A400009D4FFE70598006C20B1FFE70598016CE9
:103A50008847FFE708E00598806C20B1FFE70598EC
:103A6000816C8847FFE7FFE716E00598006800686B
:103A7000C005002807D4FFE705980168086820F012
:103A800008000860FFE70598006C20B1FFE7059883
:103A9000016C8847FFE7FFE7FFE7FFE70498059918
:103AA000C96DC8408006002840F18D80FFE7059869
:103AB00000680068C006002840F18480FFE7059890
:103AC000C16D2020884001998860059890F83500E4
:103AD000052834D1FFE705980168086820F0160032
:103AE000086005980168486920F0800048610598E1
:103AF000006C20B9FFE70598806C38B1FFE70598A6
:103B00000168086820F008000860FFE70598C16DAB
:103B10003F208840019988600599012081F835008F
:103B2000FFE70599002081F83400FFE70598006D54
:103B300020B1FFE70598016D8847FFE77BE0059816
:103B400000680068400300281AD5FFE70598006860
:103B500000680003002809D4FFE70598406C20B1F5
:103B6000FFE70598416C8847FFE708E00598C06BC0
:103B700020B1FFE70598C16B8847FFE7FFE720E02A
:103B8000059800680068C005002811D4FFE7059873
:103B90000168086820F0100008600599012081F88C
:103BA0003500FFE70599002081F83400FFE7FFE7C3
:103BB0000598C06B20B1FFE70598C16B8847FFE708
:103BC000FFE7FFE7FFE70598406DA0B3FFE7059823
:103BD000406DC00730B3FFE70599052081F8350037
:103BE00005980168086820F001000860FFE7039865
:103BF000013003900299884201D9FFE707E0FFE70F
:103C0000059800680068C0070028F0D1FFE7059913
:103C1000012081F83500FFE70599002081F8340084
:103C2000FFE7FFE70598C06C20B1FFE70598C16C7E
:103C30008847FFE7FFE706B080BD000080B586B08B
:103C400004900020039000F073FB0290049820B9C8
:103C5000FFE701208DF81700A3E00498406A08B13F
:103C6000FFE7FFE70499022081F83500FFE7049998
:103C7000002081F83400FFE704980168086820F00C
:103C800001000860FFE7049800680068C00790B171
:103C9000FFE700F04DFB0299401A06280AD3FFE720
:103CA0000499202048650499032081F835008DF897
:103CB000170076E0E7E7049800680068039003982F
:103CC00048F23F01CFF2100108400390049900919F
:103CD0004868D1F808C0CB680A6940EA0C0018436C
:103CE00010434A6910438A691043CA691043096A3C
:103CF00001430398084303900498406A042808D1BC
:103D0000FFE70499C86A096B0143039808430390CD
:103D1000FFE70398049909680860049800684069FF
:103D20000390039820F0070003900498416A0398D9
:103D3000084303900498406A04281AD1FFE70498C6
:103D4000816A0398084303900498C06A80B1FFE732
:103D50000498FDF7A7FD50B1FFE70499402048659E
:103D60000499012081F835008DF8170019E0FFE76C
:103D7000FFE703980499096848610498FDF766FD18
:103D800001900498C16D3F20884001998860049992
:103D900000204865049A012182F835108DF817003B
:103DA000FFE79DF8170006B080BD000080B588B021
:103DB000069005910492039300208DF80B0006985D
:103DC000806D0190FFE7069890F83400012804D137
:103DD000FFE702208DF81F0045E00699012081F8D9
:103DE0003400FFE7FFE7069890F8350001282BD153
:103DF000FFE70699022081F8350006990020486502
:103E000006980599049A039BFDF7C4FD0698C16DB9
:103E10003F2088400199886006980168086840F052
:103E2000160008600698006C38B1FFE70698016834
:103E3000086840F008000860FFE706980168086815
:103E400040F00100086009E0FFE70699002081F8D2
:103E50003400FFE702208DF80B00FFE79DF80B0010
:103E60008DF81F00FFE79DF81F0008B080BD00001F
:103E700080B584B0039000F05BFA02900398019043
:103E80000198013048B1FFE740F2C610C2F20000CD
:103E90000178019808440190FFE7FFE700F048FA35
:103EA0000299401A0199884201D2FFE7F6E704B06F
:103EB00080BD000080B582B0ADF80600BDF80600F8
:103EC000022822D1FFE744F6BC00C2F2000044F60B
:103ED0007851C2F2000110F003FE8DF805009DF844
:103EE000050058B1FFE744F6BC00C2F2000044F6FA
:103EF0007851C2F2000110F045FEFFE744F6BC0025
:103F0000C2F2000010F05EFEFFE702B080BD0000CC
:103F100080B582B0ADF8060043F61440C4F201004B
:103F20000068BDF8061008420CD0FFE7BDF8060097
:103F300043F61441C4F201010860BDF80600FFF722
:103F4000B9FFFFE702B080BD8EB00D900C9100204C
:103F50000A90099008900B90FFE70B980F2800F249
:103F6000CC81FFE70B99012088400A900C980068EB
:103F70000A990840099009980A99884240F0B88146
:103F8000FFE70C98406800F00300012807D0FFE726
:103F90000C98406800F0030002282FD1FFE70D982D
:103FA000806808900B984100032000FA01F10898FE
:103FB000884308900C98C0680B99490000FA01F1F9
:103FC00008980843089008980D9988600D984068F3
:103FD00008900B99012000FA01F108988843089095
:103FE0000C984068C0F300100B9900FA01F1089892
:103FF0000843089008980D994860FFE70C984068BE
:1040000000F00300032818D0FFE70D98C06808905F
:104010000B984100032000FA01F1089888430890AA
:104020000C9880680B99490000FA01F10898084340
:10403000089008980D99C860FFE70C98406800F058
:104040000300022826D1FFE70D980B996FF00302B9
:1040500002EA51010844006A08900B9800F007003A
:1040600081000F2000FA01F10898884308900C980D
:1040700000690B9901F00701890000FA01F1089825
:104080000843089008980D990B9B02EA53021144CB
:104090000862FFE70D98006808900B984100032024
:1040A00000FA01F10898884308900C98406800F0E5
:1040B00003000B99490000FA01F1089808430890A1
:1040C00008980D9908600C9880798007002800F006
:1040D0000E81FFE7FFE70020079043F64400C4F29B
:1040E0000200016841F480410160006800F48040F2
:1040F00007900798FFE70B9820F0030043F60801AC
:10410000C4F20101405808900B9800F003008100B0
:104110000F2000FA01F10898884308900D980021BB
:10412000C4F20201884203D1FFE7002006905EE05E
:104130000D9840F20041C4F20201884203D1FFE72A
:104140000120059050E00D9840F60001C4F20201F4
:10415000884203D1FFE70220049042E00D9840F628
:104160000041C4F20201884203D1FFE7032003901B
:1041700034E00D9841F20001C4F20201884203D1FB
:10418000FFE70420029026E00D9841F20041C4F2BE
:104190000201884203D1FFE70520019018E00D9845
:1041A00041F60001C4F20201884203D1FFE7062074
:1041B00000900AE00D9941F60042C4F20202082084
:1041C000914208BF07200090FFE700980190FFE7A9
:1041D00001980290FFE702980390FFE7039804908C
:1041E000FFE704980590FFE705980690FFE706981B
:1041F000C0B20B9901F00301890000FA01F108989F
:104200000843089008980B9921F0030143F608022F
:10421000C4F20102885043F60840C4F2010000686D
:10422000089009990898884308900C988079C006EE
:10423000002805D5FFE70999089808430890FFE78B
:10424000089843F60841C4F20101086043F60C40A7
:10425000C4F2010000680890099908988843089002
:104260000C9880798006002805D5FFE70999089801
:1042700008430890FFE7089843F60C41C4F2010197
:10428000086043F60440C4F20100006808900999F0
:104290000898884308900C9880798007002805D5F5
:1042A000FFE70999089808430890FFE7089843F644
:1042B0000441C4F20101086043F60040C4F2010069
:1042C0000068089009990898884308900C988079AC
:1042D000C00728B1FFE70999089808430890FFE74D
:1042E000089843F60041C4F201010860FFE7FFE7C8
:1042F000FFE70B9801300B902FE60EB070470000DF
:1043000082B00190ADF802108DF801209DF80100F7
:1043100028B1FFE7BDF802000199886105E0BDF80A
:104320000200000401998861FFE702B070470000B5
:104330004AF6DC50C2F200000068704740F2C61036
:10434000C2F2000002784AF6DC51C2F200010868AD
:10435000104408607047000080B543F60041C4F285
:104360000201086840F400700860086840F480604A
:104370000860086840F480700860032000F0CEF800
:104380000F2000F005F800F079F8002080BD000053
:1043900080B58CB00B90002004900390FFE70020C4
:1043A000009043F64000C4F20200016841F00101B0
:1043B0000160006800F0010000900098FFE706A887
:1043C00002A901F0ADFB09980490049820B9FFE719
:1043D00001F0D6FB059004E001F0D2FB400005900F
:1043E000FFE705984DF68361C4F21B31A0FB010184
:1043F0004FF0FF3000EB9140039044F6A410C2F25E
:1044000000004FF08041016040F2E731C160039944
:104410004160002101618160816102F03DFE8DF803
:1044200007009DF8070028BBFFE744F6A410C2F27E
:10443000000002F03BFF8DF807009DF80700C0B9AF
:10444000FFE71C2000F046F80B980F280CD8FFE778
:104450000B991C20002200F047F80B9840F2C8117D
:10446000C2F20001086003E001208DF80700FFE7B9
:10447000FFE7FFE79DF807000CB080BD80B582B074
:10448000FFE70020019043F64400C4F202000168F7
:1044900041F480410160006800F48040019001987F
:1044A000FFE7FFE70020009043F64000C4F202005F
:1044B000016841F080510160006800F08050009078
:1044C0000098FFE76FF001000F21002200F00CF8C8
:1044D00002B080BD80B582B08DF807009DF907005D
:1044E00010F0CCFE02B080BD80B586B08DF817000C
:1044F000049103920020029010F0D8FE02909DF9E2
:104500001700019002980499039A07F08DFA01466A
:10451000019810F0D3FE06B080BD000080B582B0D7
:104520000190019810F0ECFE02B080BD82B00190C5
:104530008DF8031002B0704782B00190ADF8021000
:10454000BDF80200019909684862002002B0704776
:1045500084B003908DF80B10ADF808200398006824
:10456000406A00909DF80B0048B9FFE7BDF80810BD
:10457000009840EA014003990968886233E0039893
:104580000068816A009800EB1140009000208DF8CF
:104590000700FFE79DF807009DF80B1001398842DE
:1045A00013D2FFE7039800689DF8071000EB810025
:1045B000D0F80411009800EB11400090FFE79DF83F
:1045C000070001308DF80700E4E7BDF808100098F7
:1045D00040EA0140039909689DF80B2001EB820134
:1045E000C1F80001FFE7002004B0704780B582B039
:1045F00001900198D0F808050DF074FE02B080BD5E
:1046000080B582B001908DF80310019AD2F80805A8
:104610009DF8031001EBC10302EB8302D26C0DF095
:10462000BDFC02B080BD000080B582B001908DF865
:104630000310019AD2F808059DF8031001EBC1039D
:1046400002EB8302D2F88C220DF072FD02B080BD25
:1046500080B582B001900198D0F808050DF048FEB1
:1046600002B080BD80B584B003908DF80B109DF82A
:104670000B00000600280CD5FFE703989DF80B10EF
:1046800001F00F0101EBC10100EB81003C30019012
:104690000CE003989DF80B1001F00F0101EBC10134
:1046A00000EB810000F51F700190FFE703980068A0
:1046B00001990FF073FC8DF80A009DF80A0004B010
:1046C00080BD000080B584B002908DF807109DF881
:1046D0000700000600280FD5FFE702989DF8071095
:1046E00001F00F0101EBC10100EB81003C300090B3
:1046F0000099012048700FE002989DF8071001F022
:104700000F0101EBC10100EB810000F51F7000906B
:10471000009900204870FFE79DF8070000F00F00A7
:1047200000990870FFE7029890F8BC04012804D1B2
:10473000FFE702208DF80F0014E00299012081F8B4
:10474000BC04FFE7FFE70298006800990EF04EFEF8
:10475000FFE70299002081F8BC04FFE700208DF8F4
:104760000F00FFE79DF80F0004B080BD80B584B056
:1047700002908DF807109DF8070000F00F000299D5
:104780004968884204D9FFE701208DF80F004DE009
:104790009DF80700000600280FD5FFE702989DF856
:1047A000071001F00F0101EBC10100EB81003C306B
:1047B00000900099012048700FE002989DF80710C2
:1047C00001F00F0101EBC10100EB810000F51F704A
:1047D0000090009900204870FFE700990020887041
:1047E0009DF8070000F00F0000990870FFE702989D
:1047F00090F8BC04012804D1FFE702208DF80F00D7
:1048000014E00299012081F8BC04FFE7FFE7029859
:10481000006800990FF06AF9FFE70299002081F81B
:10482000BC04FFE700208DF80F00FFE79DF80F00A4
:1048300004B080BD82B001908DF8031001989DF8FE
:10484000031001F00F0101EBC10100EB8100D0F872
:104850009C0202B07047000080B586B004908DF8CD
:104860000F10ADF80C208DF80B3000208DF80A00E9
:104870009DF80F00000600280FD5FFE704989DF86B
:104880000F1001F00F0101EBC10100EB81003C3082
:1048900001900199012048700FE004989DF80F10D5
:1048A00001F00F0101EBC10100EB810000F51F7069
:1048B0000190019900204870FFE79DF80F0000F07B
:1048C0000F0001990870BDF80C000199C8609DF8AF
:1048D0000B00019908710198407820B1FFE7019918
:1048E00008780881FFE79DF80B00022804D1FFE754
:1048F000019900204871FFE7FFE7049890F8BC0495
:10490000012804D1FFE702208DF8170015E0049973
:10491000012081F8BC04FFE7FFE7049800680199D3
:104920000EF01EFCFFE70499002081F8BC04FFE7AD
:104930009DF80A008DF81700FFE79DF8170006B0F4
:1049400080BD000080B586B005908DF813100392ED
:10495000029305989DF8131001F00F0101EBC101BE
:1049600000EB810000F51F70019003980199086128
:1049700002980199886101990020086201994870A4
:104980009DF8130000F00F00019908700598006968
:10499000012804D1FFE7039801994861FFE79DF8DA
:1049A0001300000738B9FFE7059A10680199127CD7
:1049B0000EF050FF06E0059A10680199127C0FF086
:1049C00039F9FFE7002006B080BD000080B584B053
:1049D00002908DF807109DF8070000F00F00029973
:1049E0004968884204D9FFE701208DF80F0058E09C
:1049F0009DF80700000600280FD5FFE702989DF8F4
:104A0000071001F00F0101EBC10100EB81003C3008
:104A100000900099012048700DE002989DF8071061
:104A200001EBC10100EB810000F51F7000900099BF
:104A300000204870FFE70099012088709DF807006A
:104A400000F00F0000990870FFE7029890F8BC048E
:104A5000012804D1FFE702208DF80F0021E0029920
:104A6000012081F8BC04FFE7FFE702980068009985
:104A70000FF08CF89DF80700000740B9FFE7029A95
:104A80001068117C02F2C4420EF0E0FFFFE7FFE77E
:104A90000299002081F8BC04FFE700208DF80F0088
:104AA000FFE79DF80F0004B080BD000080B586B020
:104AB00005908DF813100392029305989DF813103A
:104AC00001F00F0101EBC10100EB81003C300190CE
:104AD0000398019908610298019988610199002061
:104AE00008620199012048709DF8130000F00F0042
:104AF0000199087005980069012804D1FFE703981F
:104B000001994861FFE79DF81300000738B9FFE7F6
:104B1000059A10680199127C0EF09CFE06E0059A39
:104B200010680199127C0FF085F8FFE7002006B0AD
:104B300080BD000080B58CB00B900B9800680A9087
:104B40000A9809900B9800680FF06AFB002840F063
:104B50000D84FFE70B9800680FF0CEFB10B9FFE75C
:104B600000F004BC0998D0F80808C0F30D200B9998
:104B7000C1F8FC040B9800680FF0BEFB800700280A
:104B800007D5FFE70B980168486900F0020048610B
:104B9000FFE70B9800680FF0AFFBC006002862D556
:104BA000FFE70B980168886920F0100088610A9877
:104BB000006A02900B98029901F00F0101EBC1010C
:104BC00000EB810000F51F700890029800F4F011CE
:104BD0000220B0EB514F23D1FFE7BDF8080047F6A4
:104BE000F07108421BD0FFE70A9808990969029AF8
:104BF000C2F30A120FF08EFB029847F6F07100EA3A
:104C00000103089A106900EB13101061029800EA82
:104C100001020899086A00EB12100862FFE71BE026
:104C2000029800F4F0110620B0EB514F12D1FFE7CB
:104C30000A980B9901F2C44108220FF06BFB02980D
:104C400047F6F07100EA01020899086A00EB1210B9
:104C5000086200E0FFE7FFE70B980168886940F011
:104C600010008861FFE70B9800680FF045FB000318
:104C7000002840F1A680FFE7002004900B98006810
:104C80000FF0E8FA0690FFE70698002800F09880F9
:104C9000FFE79DF81800C007002800F08A80FFE7B2
:104CA0000B9800689DF810100FF00EFB05909DF812
:104CB0001400C00760B1FFE70998049900EB4111A7
:104CC0000120C1F8080B0B98049907F08DF9FFE754
:104CD0009DF81400000700280CD5FFE709980499F7
:104CE00000EB41110820C1F8080B0B98049907F05C
:104CF00035F9FFE79DF81400C006002808D5FFE746
:104D00000998049900EB41111020C1F8080BFFE746
:104D10009DF81400800700282DD5FFE70A98406908
:104D20000006002808D5FFE70999D1F8040840F4E7
:104D30008060C1F80408FFE70B98049901EBC101FA
:104D400000EB810000F51F7008900898C0780128DA
:104D500009D1FFE708990020C8700B989DF8101042
:104D600000F014FBFFE70998049900EB41110220C1
:104D7000C1F8080BFFE79DF814008006002808D54D
:104D8000FFE70998049900EB41112020C1F8080BB6
:104D9000FFE79DF815008006002809D5FFE7099870
:104DA000049900EB41114FF40050C1F8080BFFE7E4
:104DB000FFE704980130049006984008069063E7E6
:104DC000FFE70B9800680FF097FA4003002840F1C6
:104DD000C680FFE70B9800680FF02AFA06900020C3
:104DE0000490FFE70698002800F0B880FFE79DF8E0
:104DF0001800C007002800F0AA80FFE70B980068A1
:104E00009DF810100FF038FA05909DF81400C007B7
:104E100000283ED0FFE7049800F00F01012000FABF
:104E200001F10391039B099AD2F834189943C2F80F
:104E300034180999049A01EB4211C1F808090B983A
:104E4000006901281FD1FFE70B98049901EBC1010C
:104E500000EB81018A6CC86C1044C864049888B95E
:104E6000FFE70B98049901EBC10100EB8100406D55
:104E700040B9FFE70B99086801F2C44201210EF026
:104E8000E5FDFFE7FFE70B989DF81010FFF7B8FB73
:104E9000FFE79DF814000007002808D5FFE70998F0
:104EA000049900EB41110820C1F80809FFE79DF8BB
:104EB0001400C006002808D5FFE70998049900EB04
:104EC00041111020C1F80809FFE79DF814004006C1
:104ED000002808D5FFE70998049900EB411140200C
:104EE000C1F80809FFE79DF814008007002822D5C3
:104EF000FFE70A9804990FF029F90B98049901EB40
:104F0000C10100EB81003C3008900898C07801286E
:104F100009D1FFE708990020C8700B989DF8101080
:104F200000F026FAFFE70998049900EB41110220EE
:104F3000C1F80809FFE79DF814000006002805D510
:104F4000FFE70B98049907F033F9FFE7FFE70498B0
:104F50000130049006984008069043E7FFE70B985D
:104F600000680FF0C9F9C00F00B3FFE70999D1F845
:104F7000040820F00100C1F804080B9890F8F4042C
:104F8000012808D1FFE70B98002180F8F4140B9852
:104F9000FFF7CCFA03E00B9800F0E2FBFFE70B9879
:104FA0000168486900F000404861FFE70B9800681D
:104FB0000FF0A2F90005002811D5FFE70998D0F8F5
:104FC0000808C00720B1FFE70B9800F057FCFFE787
:104FD0000B980168486900F400604861FFE70B988E
:104FE00000680FF089F9C004002840F18680FFE7CF
:104FF0000999D1F8040820F00100C1F804080B98C1
:10500000006810210FF0A2F800200790FFE7079832
:105010000B994968884231D2FFE70998079900EB5C
:1050200041114FF67F30C1F808090999079A01EB41
:105030004212D2F8001921F40011C2F8001909999E
:10504000079A01EB4211C1F8080B0998079900EB88
:105050004111D1F8000B20F40010C1F8000B0998A1
:10506000079900EB4111D1F8000B40F00060C1F846
:10507000000BFFE7079801300790C8E70999D1F8BE
:105080001C0840F00110C1F81C080B98006B78B1A7
:10509000FFE70999D1F8840840F00B00C1F88408B3
:1050A0000999D1F8440840F00B00C1F844080FE01A
:1050B0000999D1F8140842F22B021043C1F81408E0
:1050C0000999D1F8100840F00B00C1F81008FFE76B
:1050D0000999D1F8000820F4FE60C1F800080B9A85
:1050E0001068117C02F2C4420EF0B0FC0B9801680B
:1050F000486900F480504861FFE70B9800680FF0A2
:10510000FBF8800400281FD5FFE70B9800680EF01D
:1051100097F80B9800680FF05DF80B99C8600B9832
:105120000068019000F026FD014601980B9A127B61
:105130000FF0E8F90B9800F0E9FA0B98016848695C
:1051400000F400504861FFE70B9800680FF0D4F8B6
:10515000000700280AD5FFE70B9800F00BFB0B981F
:105160000168486900F008004861FFE70B98006893
:105170000FF0C2F80006002825D5FFE70A998869D4
:1051800020F08000886101200490FFE704980B99CB
:105190004968884216D2FFE70B98049901EBC101D8
:1051A00000EB810090F87F02012806D1FFE70B9801
:1051B0009DF81010FFF756FAFFE7FFE7049801305B
:1051C0000490E3E7FFE70B9800680FF095F8C00242
:1051D00000283ED5FFE701200490FFE704980B99D3
:1051E000496888422ED2FFE70998049900EB4110E4
:1051F000D0F8000902900B98049901EBC10100EB73
:10520000810090F84000012817D1FFE79DF80B00BE
:105210000006002811D5FFE70B98049901EBC101A6
:1052200000EB8101012081F83F000B989DF81010E0
:1052300041F08001FFF716FAFFE7FFE7049801301D
:105240000490CBE70B980168486900F4801048612E
:10525000FFE70B9800680FF04FF88002002855D543
:10526000FFE701200490FFE704980B994968884202
:1052700045D2FFE70998049900EB4110D0F8000BE4
:1052800002900B98049901EBC10100EB810090F8AA
:10529000800201282ED1FFE79DF80B0000060028B0
:1052A00028D5FFE7029800F480300B99D1F8FC1460
:1052B00001F0010188421DD1FFE70B98049901EB31
:1052C000C10100EB8101012081F87F020A99886900
:1052D00040F0800088610A9840690006002808D4E0
:1052E000FFE70999D1F8040840F40070C1F80408F8
:1052F00005E0FFE7FFE7049801300490B4E70B985E
:105300000168486900F400104861FFE70B980068E5
:105310000EF0F2FF400000280AD5FFE70B98FFF7D8
:1053200065F90B980168486900F080404861FFE723
:105330000B9800680EF0E0FF4007002815D5FFE746
:105340000B980068406802909DF80800400700280C
:1053500004D5FFE70B98FFF77BF9FFE7029A0B985C
:105360000168486810434860FFE7FFE70CB080BD64
:1053700080B582B001908DF803100198D0F808052F
:105380009DF803100DF050F802B080BD80B582B0DA
:1053900001908DF803100198D0F808059DF80310CE
:1053A0000DF07AF802B080BD2DE9F04F97B015905E
:1053B000159820B9FFE701208DF85B0049E11598A9
:1053C00000681490159890F8BD0440B9FFE715994E
:1053D000002081F8BC04159800F040F9FFE715990A
:1053E000032081F8BD041498C06BC005002804D4C4
:1053F000FFE7159900200861FFE7159800680EF097
:105400001FFA159810900168119141688268C3686D
:10541000D0F810C044698569C669076AD0F824804D
:10542000D0F82890D0F82CA0D0F830B0D0F834E0E4
:1054300068461290C0F824E01198DDF848E0CEF8F4
:1054400020B0CEF81CA0CEF81890CEF81480CEF87C
:105450001070CEF80C60CEF80850CEF80440CEF8AC
:1054600000C00DF003FF40B1FFE71599022081F85D
:10547000BD0401208DF85B00EBE015980068002169
:105480000F910EF0A1FF0F988DF84F00FFE79DF8E8
:105490004F0015994968884245D2FFE715989DF855
:1054A0004F1001EBC10100EB8101012081F83D00AB
:1054B0009DF84F00159900EBC00201EB820181F8C5
:1054C0003C009DF84F00159900EBC00201EB8201F2
:1054D000A1F8440015989DF84F1001EBC10100EBB5
:1054E0008101002081F8400015999DF84F2002EBC2
:1054F000C20201EB8201886415999DF84F2002EBEE
:10550000C20201EB8201C86415999DF84F2002EB9D
:10551000C20201EB82014865FFE79DF84F000130B0
:105520008DF84F00B3E700208DF84F00FFE79DF89E
:105530004F001599496888423ED2FFE715989DF8BB
:105540004F1001EBC10100EB8101002081F87D02C9
:105550009DF84F10159A01EBC10302EB830282F80C
:105560007C1215999DF84F2002EBC20201EB8201DB
:1055700081F8800215999DF84F2002EBC20201EBE1
:105580008201C1F8880215999DF84F2002EBC202F2
:1055900001EB8201C1F88C0215999DF84F2002EBB6
:1055A000C20201EB8201C1F89402FFE79DF84F00AF
:1055B00001308DF84F00BAE715980C9001680D91F5
:1055C00041688268C368D0F810C044698569C669BB
:1055D000076AD0F82480D0F82890D0F82CA0D0F812
:1055E00030B0D0F834E068460E90C0F824E00D9852
:1055F000DDF838E0CEF820B0CEF81CA0CEF8189038
:10560000CEF81480CEF81070CEF80C60CEF80850AA
:10561000CEF80440CEF800C00DF0B0FF40B1FFE777
:105620001599022081F8BD0401208DF85B0010E07F
:10563000159900200B9081F838001599012081F808
:10564000BD04159800680DF083FF0B988DF85B0082
:10565000FFE79DF85B0017B0BDE8F08F80B58AB01A
:1056600009900020089007900690059004900998F2
:105670000068B0F1A04F47D1FFE7FFE7002003909B
:1056800043F63000C4F20200016841F001010160FC
:10569000006800F0010003900398FFE74FF4C0504A
:1056A00004900220059000200690032007900A2015
:1056B00008900020C4F2020004A9FEF745FCFFE7B1
:1056C00043F63401C4F20201086840F0800008602B
:1056D000FFE70020029043F64400C4F20200016894
:1056E00041F480410160006800F48040029002981B
:1056F000FFE7FFE74320019005210022FEF7F4FEBB
:105700000198FEF7E7FEFFE70AB080BD80B582B0E2
:10571000019001208DF803000198C06820B9FFE7CF
:1057200000208DF803000CE00198C068022804D125
:10573000FFE701208DF8030002E0FCF7B9FAFFE76C
:10574000FFE70198D0F808059DF803100CF0A4FFBE
:105750000198D0F808050CF01FFF02B080BD0000D2
:1057600080B582B001900198D0F808050CF062FF76
:1057700002B080BD80B582B001900198D0F80805D4
:105780000CF06AFF02B080BD80B584B002908DF845
:105790000710FFE7029890F8BC04012804D1FFE746
:1057A00002208DF80F001AE00299012081F8BC0454
:1057B000FFE7FFE79DF80700029981F8380002989B
:1057C00000689DF807100EF06FFEFFE702990020B9
:1057D00081F8BC04FFE700208DF80F00FFE79DF87B
:1057E0000F0004B080BD000080B582B00190019927
:1057F000D1F8080501F2C4410CF078FF02B080BD79
:1058000080B584B00290029800680190FFE702988A
:1058100090F8BC04012804D1FFE702208DF80F00A6
:1058200027E00299012081F8BC04FFE7FFE7029816
:10583000806A01280BD1FFE702988069012806D011
:10584000FFE70199886B40F480308863FFE7029896
:1058500000680EF031FC029800680DF063FEFFE76F
:105860000299002081F8BC04FFE700208DF80F00AA
:10587000FFE79DF80F0004B080BD000080B582B046
:1058800001900198D0F808050CF0B2FF019801686A
:10589000D1F8000E40F00100C1F8000E0198006A36
:1058A00048B1FFE74EF61051CEF20001086840F013
:1058B00006000860FFE702B080BD000080B584B03C
:1058C00002900191029820B9FFE701208DF80F00A6
:1058D00021E1019843F60041C4F20201096801F098
:1058E0000701884212D9FFE7019943F60040C4F24C
:1058F00002000170006800F007000199884204D09E
:10590000FFE701208DF80F0005E1FFE7029800781E
:10591000800700282AD5FFE7029800784007002872
:1059200009D5FFE743F60801C4F20201086840F414
:10593000E0500860FFE7029800780007002809D5CA
:10594000FFE743F60801C4F20201086840F4604032
:105950000860FFE743F60801C4F20201086820F07E
:10596000F000029A926810430860FFE702980078FE
:10597000C00700286ED0FFE702984068012811D1C7
:10598000FFE743F60000C4F20200006800F40031B3
:105990000020B0EB514F04D1FFE701208DF80F003C
:1059A000B9E02CE002984068022805D0FFE7029891
:1059B0004068032811D1FFE743F60000C4F202005B
:1059C000006800F000710020B0EB516F04D1FFE7D8
:1059D00001208DF80F009EE010E043F60000C4F2B5
:1059E0000200006800F002010020B0EB510F04D16A
:1059F000FFE701208DF80F008DE0FFE7FFE743F69A
:105A00000801C4F20201086820F00300029A5268FB
:105A100010430860FEF78CFC0090FFE743F6080097
:105A2000C4F20200006800F00C0002994968B0EB73
:105A3000810F0ED0FFE7FEF77BFC0099401A41F280
:105A40008931884204D3FFE703208DF80F0062E01C
:105A5000E4E7FFE7019843F60041C4F20201096858
:105A600001F00701884212D2FFE7019943F6004096
:105A7000C4F202000170006800F00700019988423A
:105A800004D0FFE701208DF80F0044E0FFE7029803
:105A90000078400700280CD5FFE743F60801C4F260
:105AA0000201086820F4E050029AD26810430860AE
:105AB000FFE702980078000700280DD5FFE743F6BE
:105AC0000801C4F20201086820F46040029A1269D9
:105AD00040EAC2000860FFE700F076F843F60801EC
