:020000040800F2
:10000000B8F2002069020008B1B50008898600082E
:10001000ADB50008310D0008D53D01080000000015
:10002000000000000000000000000000C1ED00081A
:10003000551B000800000000C1C300087DF3000844
:10004000830200088302000883020008830200087C
:10005000830200088302000883020008591B00087D
:10006000830200088302000883020008830200085C
:10007000E1160008830200088302000883020008DA
:10008000830200088302000883020008830200083C
:10009000350D00088302000883020008830200086F
:1000A0008302000889F40008830200088302000824
:1000B00099F4000883020008830200088302000804
:1000C00083020008830200088302000883020008FC
:1000D00083020008A502010883020008C10201088A
:1000E00083020008830200088302000883020008DC
:1000F000830200088302000883020008F11600084A
:1001000083020008830200088302000883020008BB
:10011000830200088302000883020008A9F4000893
:1001200083020008011700081117000821170008B2
:10013000830200088302000883020008830200088B
:10014000450D0008830200088302000869B9000811
:10015000311700084117000851170008DD02010897
:10016000830200088302000883020008830200085B
:1001700083020008830200088302000800000000D8
:10018000830200088302000800F002F800F05CF827
:100190000AA090E8000C82448344AAF10107DA45E2
:1001A00001D100F051F8AFF2090EBAE80F0013F0D8
:1001B000010F18BFFB1A43F0010318476CE7010059
:1001C0008CE701000A444FF0000C10F8013B13F0DB
:1001D000070408BF10F8014B1D1108BF10F8015BA0
:1001E000641E05D010F8016B641E01F8016BF9D193
:1001F00013F0080F1EBF10F8014BAD1C0C1B09D1EA
:100200006D1E58BF01F801CBFAD505E014F8016B5B
:1002100001F8016B6D1EF9D59142D6D370470000ED
:100220000023002400250026103A28BF78C1FBD8FF
:10023000520728BF30C148BF0B6070471FB51DF083
:1002400022FA1FBD10B510BD00F002FA1146FFF7EB
:10025000F5FF19F0C5FC00F020FA03B4FFF7F2FF38
:1002600003BC00F023FA0000094880470948004712
:10027000FEE7FEE7FEE7FEE7FEE7FEE7FEE7FEE756
:10028000FEE7FEE704480549054A064B70470000B3
:1002900075F4000889010008B8B20020B8F2002007
:1002A000B8D20020B8D2002053EA020C00F06980D6
:1002B0002DE9F04B4FF00006002B1FBFB3FA83F57A
:1002C00003FA05F424FA05F65E4012BF1643B2FAAB
:1002D00082F502FA05F4C5F120051EBF22FA05FCDD
:1002E00044EA0C04203556EA044C4FEA144418BF83
:1002F000641C4FF000084FF00009904271EB030CB2
:1003000039D3002919BFB1FA81F701FA07F6B0FA1B
:1003100080F700FA07F6C7F120071EBF20FA07FC96
:1003200046EA0C062037B6FBF4FCA7EB0507103FA6
:1003300007F01F0BCBF120062CFA06F60CFA0BFB8C
:1003400044BFB3460026202FA4BF5E464FF0000BEB
:100350005BEA060C08BF4FF0010B19EB0B0948EBE9
:100360000608ABFB027C06FB02CC0BFB03CCC01BDC
:1003700071EB0C01C1E70B46024641464846BDE819
:10038000F08B13B5084318BF4FF0FF300146AFF3B1
:100390000080BDE81C40704753EA020C23D010B522
:1003A0004C1084EA530404D54042C1F1000138BF27
:1003B000491E1B4204D55242C3F1000338BF5B1EE5
:1003C000FFF772FF14F0804F04D04042C1F10001EA
:1003D00038BF491E14F0004F04D05242C3F100034D
:1003E00038BF5B1E10BD13B540424FF0000070EBEC
:1003F0000104B8BF012001F0004100281CBF6FF0CC
:1004000000414FF0FF30AFF300801CBD40EA010314
:10041000024630B59B0710D14FF0013400E008C20E
:1004200008C91D1B9D4315EAC41FF8D013F0FF0136
:1004300002F8011B0DD01B0AF8E711F8013B002B55
:1004400002F8013B05D011F8013B002B02F8013BFB
:10045000F3D130BD10B5431C02E010F8011B71B19F
:100460008107FAD14FF0013202C88C1A8C4314EA8A
:10047000C211F9D0C01A0A0603D0C01E10BDC01A9E
:1004800010BD0A0401D0801E10BD0902FCD0401E20
:1004900010BD032A40F2308010F0030C00F01580EC
:1004A00011F8013BBCF1020F624498BF11F801CB77
:1004B00000F8013B38BF11F8013BA2F1040298BFDC
:1004C00000F801CB38BF00F8013B11F0030300F046
:1004D0002580083AC0F0088051F8043B083A51F8EA
:1004E00004CBA0E80810F5E7121D5CBF51F8043BEF
:1004F00040F8043BAFF30080D20724BF11F8013B62
:1005000011F801CB48BF11F8012B24BF00F8013BC3
:1005100000F801CB48BF00F8012B704710B5203A16
:10052000C0F00B80B1E81850A0E81850B1E818509E
:10053000A0E81850203ABFF4F5AF5FEA027C24BF70
:10054000B1E81850A0E8185044BF18C918C0BDE859
:1005500010405FEA827C24BF51F8043B40F8043B22
:1005600008BF7047D20728BF31F8023B48BF11F8D7
:10057000012B28BF20F8023B48BF00F8012B704731
:1005800002F0FF0343EA032242EA024200F024B8E9
:100590004FF000020429C0F0128010F0030C00F0AC
:1005A0001B80CCF1040CBCF1020F18BF00F8012B2A
:1005B000A8BF20F8022BA1EB0C0100F00DB85FEAF8
:1005C000C17C24BF00F8012B00F8012B48BF00F8C4
:1005D000012B70474FF0000200B513469446964633
:1005E000203922BFA0E80C50A0E80C50B1F1200146
:1005F000BFF4F7AF090728BFA0E80C5048BF0CC0F4
:100600005DF804EB890028BF40F8042B08BF704751
:1006100048BF20F8022B11F0804F18BF00F8012BC3
:10062000704770477047704710B500F009F80068D0
:1006300010BD10B5044600F003F8046010BD0000C2
:100640000048704798020020004870479802002038
:100650007546FFF7F9FFAE4605006946534620F0A0
:100660000700854618B020B5FFF70CFEBDE8204016
:100670004FF000064FF000074FF000084FF0000B5E
:10068000AC46ACE8C009ACE8C009ACE8C009ACE8CD
:10069000C00921F007018D46704710B50446AFF33D
:1006A00000802046BDE81040FFF7D7BD0149182063
:1006B000ABBEFEE7260002007047000082B001904A
:1006C00042F20030C4F2010000900099486820F422
:1006D000403048600198426800994868104348607B
:1006E00001980168486820F48070486001980168AA
:1006F0000269486840EA0220486001980168486839
:1007000020F0407048600198016882684868104392
:10071000486001980168886820F40060886001984A
:100720000168C2688868104388600198806A012166
:10073000C0F60071884219D0FFE701980168886807
:1007400020F07060886001980168826A88681043B0
:10075000886001980168886820F04050886001989E
:100760000168C26A8868104388600CE001980168DB
:10077000886820F07060886001980168886820F0BF
:1007800040508860FFE701980168886820F0020007
:1007900088600198027E0168886840EA42008860AB
:1007A000019890F82000C8B1FFE7019801684868F7
:1007B00040F40060486001980168486820F4604097
:1007C000486001980168426A4EF20000CFF6FF705F
:1007D00000EB423248681043486006E00198016827
:1007E000486820F400604860FFE701980168C86A23
:1007F00020F47000C86201980168C2690020CFF639
:10080000F07000EB0252C86A1043C8620198016898
:10081000886820F400708860019890F830200168A2
:10082000886840EA4220886001980168886820F45E
:1008300080608860019801684269886840EA822087
:10084000886002B07047000080B50020C4F202004A
:100850001021012203F0A0FC80BD000080B5002023
:10086000C4F202001021002203F096FC80BD0000BB
:100870007047000080B540F20040C4F2020001223F
:10088000114603F089FC80BD80B540F20040C4F2FF
:1008900002000121002203F07FFC80BD70470000B0
:1008A00080B582B0ADF80600FFE7BDF80600411E36
:1008B000ADF8061028B1FFE74FF47A7000F004F8A5
:1008C000F3E702B080BD000086B0ADF8160000204E
:1008D000049003900290019000904EF21400CEF22A
:1008E000000000680090BDF81600C0EB0010400149
:1008F00004904EF21800CEF2000000680390FFE76B
:100900004EF21800CEF2000000680290029803999F
:1009100088421ED0FFE702980399884207D2FFE77A
:1009200003980299411A01980844019008E0009840
:100930000299401A03990144019808440190FFE785
:100940000298039001980499884201D3FFE701E0DF
:10095000FFE7D5E706B0704780B582B000208DF87C
:100960000700FFF785FFFFF799FF18F065F90146CB
:100970009DF8070008438DF8070018F025FA014696
:100980009DF8070008438DF807009DF8070002B0A6
:1009900080BD000080B588B00790069105920020C8
:1009A000009004900390FFF759FF922000F006F9A1
:1009B000122003A90191062200F0CCF8FFF744FFB2
:1009C0009DF80C009DF80D1040EA0120ADF80A00DA
:1009D000BDF90A0000EE100AB8EEC00A40F20000AD
:1009E000C2F2000090ED001A20EE010A069981ED96
:1009F000000A9DF80E109DF80F2041EA0221ADF883
:100A00000A10BDF90A1000EE101AB8EEC00A90EDF7
:100A1000001A20EE010A069981ED010A9DF81010D6
:100A20009DF8112041EA0221ADF80A10BDF90A1023
:100A300000EE101AB8EEC00A90ED001A20EE010A7E
:100A4000069880ED020AFFF71FFF0098019908221F
:100A500000F080F8FFF70EFF9DF80C000F2844D13E
:100A6000FFE79DF80E009DF80F1040EA0120ADF859
:100A70000A00BDF90A0000EE100AB8EEC00A40F202
:100A80000400C2F2000090ED001A20EE010A07995E
:100A900081ED000A9DF810109DF8112041EA022115
:100AA000ADF80A10BDF90A1000EE101AB8EEC00A2F
:100AB00090ED001A20EE010A079981ED010A9DF8D8
:100AC00012109DF8132041EA0221ADF80A10BDF979
:100AD0000A1000EE101AB8EEC00A90ED001A20EECF
:100AE000010A079880ED020AFFE7FFF7B7FEA22090
:100AF00000F064F8222003A9022200F02BF8FFF78F
:100B0000A3FE9DF80C009DF80D10C00040EA5110A6
:100B1000ADF80A00BDF90A00B0F5806F07DBFFE70A
:100B2000BDF80A00A0F50060ADF80A00FFE7BDF9C6
:100B30000A0000EE100AB8EEC00AB4EE001A20EE69
:100B4000010AB3EE071A30EE010A059880ED000A9B
:100B500008B080BD80B584B08DF80F0002918DF88B
:100B600007209DF80F0040F0800000F027F8FFE715
:100B70009DF8070070B1FFE7552000F01FF80299BB
:100B800008700298013002909DF8070001388DF836
:100B90000700EDE704B080BD80B582B08DF8070096
:100BA00000919DF8070040F0800000F007F8552004
:100BB00000F004F80099087002B080BD80B582B0E2
:100BC0008DF8070069464FF47A70086044F2B4105B
:100BD000C2F200000DF107010DF10602012305F03C
:100BE000FFFE9DF8060002B080BD000080B582B017
:100BF0008DF807008DF806109DF80700FFF7DEFF5F
:100C00009DF80600FFF7DAFF02B080BD80B582B024
:100C100001900198006841F20041C4F2000188424D
:100C200010D1FFE740F2C802C2F200021078013092
:100C3000107044F20C20C2F2000040F2012100F0DA
:100C4000D5F9FFE702B080BD80B584B0039003986A
:100C5000006844F60001C4F2000188420FD1FFE7AA
:100C600044F2C830C2F200000068006800F01001D1
:100C70000020B0EB111F01D0FFE7FFE7FFE703986B
:100C8000006841F20041C4F20101884227D1FFE728
:100C900044F20C40C2F200000068006800F010014D
:100CA0000020B0EB111F19D0FFE743F2C850C2F289
:100CB0000000027841F26060C2F20000019042F64A
:100CC000B871C2F200010CF06DF8019944F20C40C9
:100CD000C2F20000FF2207F03BFBFFE7FFE70398AB
:100CE000006841F20001C4F2010188421ED1FFE711
:100CF00044F28430C2F200000068006800F0100185
:100D00000020B0EB111F10D0FFE7FFE7002002909A
:100D100044F28430C2F20000016809680291006860
:100D2000406802900298FFE7FFE7FFE704B080BD4C
:100D3000FFE7FEE780B543F65010C2F2000001F075
:100D400063FF80BD80B543F67810C2F2000001F069
:100D50005BFF80BD80B58EB00C90002003908DF8B5
:100D600014008DF815008DF816008DF817008DF819
:100D700010008DF811008DF812008DF813008DF819
:100D80002C008DF82D008DF82E008DF82F008DF899
:100D9000280008218DF829108DF82A008DF82B00E5
:100DA0008DF824008DF825008DF826008DF8270099
:100DB0008DF820008DF821008DF822008DF8230099
:100DC0008DF81C008DF81D008DF81E008DF81F0099
:100DD0008DF818008DF819108DF81A008DF81B0089
:100DE0000C9809F09DFB20B9FFE700208DF8370033
:100DF0006BE00C9809F046FC20B9FFE700208DF865
:100E0000370062E00C982021232205AB09F0B0FCEA
:100E10000C982421272204AB09F0AAFC0C9800218D
:100E2000019103220BAB09F0A3FC0C980421009163
:100E300007220AAB09F09CFC0C9808210B2209AB95
:100E400009F096FC0C981021132208AB09F090FCD5
:100E50000C981421172207AB09F08AFC0C98182172
:100E60001B2206AB09F084FC009A0C98602109F063
:100E700061FC0C9870210122029209F05BFC019A3E
:100E80000C982A2109F056FC0C982921912209F08E
:100E900051FC029A0C98282109F04CFC019A0C98FC
:100EA0002C2109F047FC029A0C982B2109F042FCF6
:100EB0000C9809F013FC20B9FFE700208DF83700EB
:100EC00003E001208DF83700FFE79DF837000EB0F2
:100ED00080BD000080B588B007900691002000908A
:100EE0008DF817008DF81400049003900290079875
:100EF00009F000FB014600988DF804109DF80410DD
:100F0000B0EB911F6ED0FFE79DF804104FF0FF305B
:100F100000EB91106FF00201084207D1FFE707983C
:100F2000902102AA0D2309F069FB0EE09DF8041040
:100F30000220B0EB911F07D1FFE70798942102AA86
:100F40000D2309F05BFBFFE7FFE79DF80400C0F30A
:100F5000C100022811D1FFE70699022008709DF810
:100F600008209DF809309DF80A009DF80B1018F034
:100F7000FBF90699C1F801000CE006990120087000
:100F80009DF808009DF8091018F02CFA0699C1F890
:100F90000100FFE79DF80C00069948719DF80D00CF
:100FA000069988719DF80E000699C8719DF80F008A
:100FB000069908729DF81000069948729DF8110074
:100FC000069988729DF812000699C8729DF8130060
:100FD000069908739DF814000699487301208DF84E
:100FE0001700FFE79DF8170008B080BD80B584B0FA
:100FF0000390ADF80A10019244F2C861C2F20001F8
:1010000001200870BDF90A00C1F8010008204871EC
:10101000019A10685268C1F80A20C1F806000398C6
:1010200000F002F804B080BD80B588B0079006914A
:1010300000208DF8170044F25041C2F20001087000
:1010400048708870C870079809F0F4FA014643F2B6
:10105000C450C2F20000017000788008C007F0B9E7
:10106000FFE70699D1F80100097844F25042C2F234
:101070000002049218F028F9049A079806994B790F
:101080000631EC46CCF80010402109F071FA0798BF
:10109000812109F0E5FA01208DF817004FE043F2B5
:1010A000C450C2F2000000780009C007F0B9FFE7A1
:1010B0000699D1F80100097844F25042C2F20002C8
:1010C000039218F001F9039A079806994B790631B3
:1010D000EC46CCF80010422109F04AFA0798822128
:1010E00009F0BEFA01208DF8170027E043F2C45042
:1010F000C2F2000000788009C007F0B9FFE7069946
:10110000D1F80100097844F25042C2F20002029282
:1011100018F0DAF8029A079806994B790631EC46EE
:10112000CCF80010442109F023FA0798842109F033
:1011300097FA01208DF81700FFE7FFE7FFE79DF81A
:10114000170008B080BD000080B590B00E2003905D
:101150000F900B9001210E9100200C900D910690A4
:101160000790089009900B900A9043F65010C2F235
:101170000000019006A9029101F078FB019802F0AD
:1011800085F901980221049101F08EFA02990398E1
:101190000F900B9043F67810C2F20000059001F01A
:1011A00065FB059802F072F90499059801F07CFA44
:1011B00010B080BD84B08DF80F000291ADF806200C
:1011C0009DF80F000146009123281DD80099DFE803
:1011D00001F012131415161B1B1B1B1B1B1B1B1BC7
:1011E0001B1B1B1B1B1B1B1B1B1B1B1B1B1B1B1B4F
:1011F0001B1B1718191A08E007E006E005E004E0D9
:1012000003E002E001E000E0FFE7002004B07047E7
:101210000020704780B582B043F2E450C2F2000073
:10122000009042F2B871C2F20001002201920FF068
:10123000FDFB009841F6B871C2F200010FF0D8FB37
:10124000019802B080BD000080B584B00390029187
:10125000039943F2E450C2F2000001900FF0C8FB82
:1012600001980FF06BFB002004B080BD83B00290AA
:1012700001918DF8032000208DF802009DF90200F5
:1012800003B0704780B586B00490ADF80E10002012
:101290008DF80D0043F2E450C2F20000D0F8BC0219
:1012A00002900298D0F8140220B1FFE701208DF8D7
:1012B000170013E00499BDF80E2043F2E450C2F287
:1012C000000001900FF0B2FB01980FF0B9FC8DF80F
:1012D0000D009DF80D008DF81700FFE79DF8170031
:1012E00006B080BD83B0029001910092029801780F
:1012F00041F29870C2F2000001720299497841727D
:101300000299897881720299C978C1720299097922
:10131000017302994979417302998979817302991C
:10132000C979C173018941F30A01019A5180418948
:1013300041F30A01019A9180818941F30A01019ADE
:101340005181837B019A92F83C1003F0100301F065
:101350000F01194482F83C10817BC1F34013019ABC
:1013600092F83D1001F0F001194482F83D10817BA4
:1013700001F00103019A92F83E1001F00F0141EAD9
:10138000031182F83E10817BC1F38003019A92F829
:101390003A1001F0F001194482F83A108189C1F342
:1013A000C023019A92F83B1001F0F001194482F831
:1013B0003B108189C1F30033019A92F83B1001F090
:1013C0000F0141EA031182F83B10837B019A92F8E6
:1013D0003A1003F0080301F00F0141EA430182F8DB
:1013E0003A10C189C1F3C11241F6E021C2F20001F5
:1013F0000A70C289C2F34122019B1A73C289C2F3E7
:10140000C122019B5A73C089C0F34030C8720120C9
:1014100003B0704780B582B00190019890F8270022
:10142000012807D1FFE740F20E01C2F20001C820F7
:10143000088085E0019890F82700022807D1FFE78F
:1014400040F20E01C2F20001E620088077E0019828
:1014500090F82700032808D1FFE740F20E01C2F2FE
:1014600000014FF48270088068E0019890F827002E
:10147000042808D1FFE740F20E01C2F200014FF448
:101480009170088059E0019890F82700052808D14C
:10149000FFE740F20E01C2F200014FF4A070088095
:1014A0004AE0019890F82700062808D1FFE740F2AB
:1014B0000E01C2F200014FF4AF7008803BE00198CA
:1014C00090F82700072808D1FFE740F20E01C2F28A
:1014D00000014FF4BE7008802CE0019890F82700BE
:1014E000082808D1FFE740F20E01C2F200014FF4D4
:1014F000D27008801DE0019890F82700092808D1D3
:10150000FFE740F20E01C2F200014FF4E1700880E3
:101510000EE0019890F827000A2808D1FFE740F272
:101520000E01C2F200014FF4FA700880FFE7FFE7F6
:10153000FFE7FFE7FFE7FFE7FFE7FFE7FFE7FFE77B
:1015400040F20E00C2F2000000880199B1F83F108D
:10155000401A41F29871C2F20001009108801020F7
:1015600088700198D0F859001CF0E4F80099C87010
:10157000012002B080BD000080B588B0DDF82CC02D
:10158000DDF828C0079006918DF81720049307987E
:10159000049A0A9B0B99EC46CCF8001043F26401C4
:1015A000C2F2000112F084FC0699CD200870079861
:1015B000016843F2CC50C2F2000002900160017851
:1015C000069A51704178069A91708178069AD17086
:1015D000C178069A11710799496801600178069AE5
:1015E00051714178069A91718178069AD171C178CA
:1015F000069A11720799497E069A517207994969AC
:1016000001600178069A91724178069AD1728178C8
:10161000069A1173C078069948730798007E069958
:1016200088730699DC20C8739DF8170038B9FFE766
:1016300006981021FFF726FE8DF80F0010E09DF8A8
:10164000170001280BD1FFE7069944F28430C2F25B
:101650000000102206F0C0FE8DF80F00FFE7FFE744
:10166000012008B080BD000010B586B08C468646CB
:1016700009980899CDF814E0ADF812C0ADF8102023
:10168000ADF80E30ADF80C10ADF80A009DF8110061
:101690008DF802009DF810008DF803009DF80F00F2
:1016A0008DF804009DF80E008DF805009DF80D00E2
:1016B0008DF806009DF80C008DF807009DF80B00D2
:1016C0008DF808009DF80A008DF809000598BDF80E
:1016D00012100DF1020217F075FC06B010BD0000EB
:1016E00080B543F68830C2F2000002F063F880BD96
:1016F00080B543F66820C2F2000002F05BF880BDBE
:1017000080B543F6E830C2F2000002F053F880BD25
:1017100080B543F6A810C2F2000002F04BF880BD7D
:1017200080B543F60820C2F2000002F043F880BD05
:1017300080B543F6C820C2F2000002F03BF880BD3D
:1017400080B543F64840C2F2000002F033F880BD95
:1017500080B543F62830C2F2000002F02BF880BDBD
:1017600082B001900198007810384AF6AB21CAF691
:10177000AA21A0FB01100009009000994DF610303D
:10178000C0F60100405C0199C8650098042807D3A1
:10179000FFE701990868042262F30900886506E002
:1017A0000199086840F2FF3290438865FFE701988D
:1017B000806D02B07047000086B0059000208DF863
:1017C00013000598806A03900598806910BBFFE7B5
:1017D0000398029003281BD80299DFE801F0020D5C
:1017E0000218059890F82F00C00720B1FFE70120EC
:1017F0008DF81300FFE70CE00598C06AB0F1C07FD8
:1018000004D1FFE701208DF81300FFE701E000E0BD
:10181000FFE745E005988069B0F5005F25D1FFE757
:101820000398019003281ED80199DFE801F0020611
:10183000021101208DF8130016E0059890F82F0092
:10184000C00720B1FFE701208DF81300FFE70BE090
:101850000598C06AB0F1C07F04D1FFE701208DF880
:101860001300FFE700E0FFE719E00398009003286A
:1018700004D3FFE70098032804D00EE001208DF880
:1018800013000BE0059890F82F00C00720B1FFE788
:1018900001208DF81300FFE700E0FFE7FFE7FFE717
:1018A0009DF8130006B0704784B003900291019236
:1018B000009303980168086820F48020086000986D
:1018C00003990968486003988068402809D1FFE7B8
:1018D0000198039909688860029803990968C860AB
:1018E00008E00298039909688860019803990968DB
:1018F000C860FFE704B0704781B041F20400CEF247
:10190000000000680090009841F29071C2F200015E
:101910000968884208D2FFE741F29471C2F20001DF
:10192000086801300860FFE7009841F29071C2F248
:101930000001086001B0704780B584B0039041F2A7
:101940000400CEF200000068029002980399096832
:10195000401A00EE100AB8EE400A41F27870C2F266
:10196000000090ED001AB8EE411A80EE010A8DEDEC
:10197000010A029803990860FFF7BEFF9DED010A76
:1019800004B080BD80B582B000F066F841F68C30BE
:10199000C2F20000016883884FF47A7201FB0231C1
:1019A00000EE101AB8EE401AC08800EE100AB8EE29
:1019B000C00A9FED062A20EE020A30EE010A8DEDE4
:1019C000010A9DED010A02B080BD00BF6F12833A8B
:1019D00081B000904EF6FC51CEF20001086840F054
:1019E0008070086041F20401CEF20001002008601E
:1019F00041F20002CEF20002116841F001011160D3
:101A0000009944F24022C0F20F024A4341F2787139
:101A1000C2F200010A600A6844F6D353C1F26203BD
:101A2000A2FB0332920941F27C73C2F200031A60F6
:101A300009684DF68362C4F21B32A1FB0221890CB6
:101A400041F28072C2F20002116041F29471C2F25E
:101A50000001086001B07047B0B586B041F20400E3
:101A6000CEF2000000680590FFF746FF41F2947047
:101A7000C2F2000001680598002302934FF0FF3C7A
:101A80001A46E1FB0C0241F28871C2F2000100919A
:101A90004A6008600868496841F27874C2F200043C
:101AA0002268FEF701FC029B02468C46009941F237
:101AB000C070C2F20000C0F804C00260D1F800C0DB
:101AC0004968D0F800E042682468AEFB04E502FBF8
:101AD0000452BCEB0E0C61EB020241F2C871C2F27F
:101AE00000010391C1F800C04A60006841F68C32E1
:101AF000C2F20002049210600868496841F27C72E8
:101B0000C2F2000201921268FEF7CEFBDDF804C0BB
:101B1000029B049A0146039891800168406892886C
:101B2000DCF800C002FB0CF28A1A60F1000041F2FE
:101B3000D071C2F200010A6048600868496841F249
:101B40008072C2F200021268FEF7AEFB0499C880F0
:101B500006B0B0BD7047000080B582B044F20C20E2
:101B6000C2F20000009044F29C61C2F2000112F047
:101B700005FA8DF80700022002F016F9009812F01D
:101B8000F7FA02B080BD000081B0EFF3108072B6AA
:101B90000090FFE7FEE7000080B588B0A820FFF7BF
:101BA00017FFFFF7D1FA44F20C20C2F20000FFF752
:101BB000D1F843F2E051C2F20001087044F23C3027
:101BC000C2F2000005F040FA44F2F420C2F2000034
:101BD000082105F019FE43F6C820C2F2000001906A
:101BE00001F08EFD43F62830C2F20000029001F0B1
:101BF00087FD019801F06EFF029801F06BFF44F23F
:101C00008430C2F2000005F0FDFE43F68830C2F2D7
:101C10000000039001F074FD039801F05BFF44F2B3
:101C2000C830C2F20000049005F0ECFE049802688F
:101C3000D16841F01001D16041F2A871C2F20001F7
:101C4000252206F085FB43F6E830C2F2000005903D
:101C500001F056FD43F64840C2F20000069001F044
:101C60004FFD059801F036FF069801F033FF44F26E
:101C70000C40C2F2000005F0C5FE09F05BFC40F626
:101C80003C01C4F200010791322008604FF4FA7061
:101C900002F03AF807990020086008B080BD000003
:101CA00080B584B003908DED020A0398806901909D
:101CB00001A8FFF741FE039910EE100AC8619DEDDF
:101CC000020A0399C868CB690A6A01EE103A20EE4D
:101CD000010A03EE102A33EE012A80EE020A01EE19
:101CE000100A21EE031A81EE021A30EE010A10EEFC
:101CF000100AC8600398008E032810DBFFE7039AE0
:101D000002F13200D168D26900EE102A00EE901A7A
:101D100009F086FC039910EE100A486211E003995D
:101D2000CB680A69C86900EE103A01EE102A30EE5D
:101D3000410A01EE100A80EE010A10EE100A486214
:101D4000FFE70398B0F85C00032810DBFFE7039976
:101D500001F15E00CA69496A00EE102A00EE901A8D
:101D600009F05EFC039910EE100A886211E00399F5
:101D7000C8694B6ACA6A00EE103A01EE102A30EECA
:101D8000410A01EE100A80EE010A10EE100A886284
:101D9000FFE70399D1F800C04A688868CB6800EE75
:101DA00010CA02EE103A01EE102A4A6A03EE102A17
:101DB00021EE031A20EE020A30EE011A00EE100A9C
:101DC000886A02EE100A20EE020A30EE010A10EED6
:101DD000100AC1F888000398D0F88810D0F88C0059
:101DE00000EE101A01EE100AF1EE410A17F028FE7B
:101DF000039910EE100AC1F888000399C8680861B9
:101E00000399486AC8620398D0F8880000EE100A67
:101E100004B080BD80B586B005908DED040A0391B5
:101E2000CDED020AADF80620ADF80430049805990E
:101E3000C1F88C00039880B1FFE7059868B1FFE70F
:101E40000398006805990860039840680599486000
:101E500003988068059988600AE005990020086069
:101E600005994860059988600599C1F88C00FFE7DD
:101E7000029805990862BDF8060005990886BDF824
:101E800004000599A1F85C00BDF80600032807DBF3
:101E9000FFE705983230BDF8061009F023FDFFE793
:101EA000BDF80400032807DBFFE705985E30BDF8A6
:101EB000041009F017FDFFE70599002088610599D6
:101EC000C1F8880006B080BD84B002900191ADF8E1
:101ED0000220029828B9FFE74FF6FF70ADF80E0018
:101EE00021E0FFE70198411E0191B8B1FFE7029898
:101EF000411C029100788DF80100BDF802109DF898
:101F000001004840C2B24EF22870C0F6010030F81D
:101F1000120080EA1120ADF80200E3E7BDF80200EC
:101F2000ADF80E00FFE7BDF80E0004B070470000EA
:101F300082B00190ADF802108DF80120FFE7BDF8E6
:101F40000200411EADF8021098B1FFE79DF80100B4
:101F500001994A1C0192097848408DF800009DF8CB
:101F600000104DF61020C0F60100405C8DF8010015
:101F7000E5E79DF8010002B07047000041F6D80087
:101F8000C2F2000090ED690A7047000041F6D800E7
:101F9000C2F2000090ED680A7047000080B584B07E
:101FA00047F61020C1F6FF700068039047F6142032
:101FB000C1F6FF700068029047F61820C1F6FF7066
:101FC000006801900199039808440390039888B130
:101FD000FFE7039840F28811C2F20001009102313C
:101FE000082207F083FC009902981231042207F0BE
:101FF0007DFCFFE704B080BD41F6D800C2F20000CE
:1020000090ED6A0A7047000041F6D800C2F2000065
:1020100090ED6B0A7047000085B00390029100209C
:102020000190FFE7039890F83C00012804D1FFE7F6
:1020300002208DF81300F7E00399012081F83C009D
:10204000FFE7FFE7029800680A281CD3FFE7029821
:10205000008800EB4000A0F11E01072000FA01F209
:1020600003980168C8689043C86002998868098825
:1020700001EB41011E3900FA01F203980168C868BA
:102080001043C86018E00298008800EB4001072068
:1020900000FA01F203980168086990430861029907
:1020A0008868098801EB410100FA01F20398016890
:1020B000086910430861FFE70298406806281BD8AA
:1020C000FFE70298406800EB8000411F1F2000FAE4
:1020D00001F203980168486B9043486302990888AD
:1020E000496801EB8101053900FA01F203980168A2
:1020F000486B104348633DE0029840680C281CD8A8
:10210000FFE70298406800EB8000A0F123011F2048
:1021100000FA01F203980168086B90430863029982
:102120000888496801EB8101233900FA01F203981C
:102130000168086B104308631BE00298406800EBDD
:102140008000A0F141011F2000FA01F2039801680C
:10215000C86A9043C86202990888496801EB810106
:10216000413900FA01F203980168C86A1043C86255
:10217000FFE7FFE742F20030C4F20100009003984D
:10218000006842F20001C4F2010188420BD1FFE76E
:1021900002980068122806D1FFE70099486840F4C9
:1021A00080004860FFE70398006842F20001C4F233
:1021B000010188422ED1FFE702980068102805D05F
:1021C000FFE702980068112824D1FFE700994868CA
:1021D00040F40000486002980068102819D1FFE719
:1021E00040F2C400C2F2000000684DF68361C4F200
:1021F0001B31A0FB0110800C00EB8000400001901F
:10220000FFE7019820B1FFE7019801380190F8E756
:10221000FFE7FFE7FFE70399002081F83C00FFE7B5
:1022200000208DF81300FFE79DF8130005B07047FC
:1022300081B0009000980068C06C01B07047000049
:1022400080B584B0029000208DF80700029820B974
:10225000FFE701208DF80F0042E00298806A01211B
:10226000C0F60071884201D0FFE7FFE70298006CDA
:1022700050B9FFE7029800F037F80299002048644F
:10228000029981F83C00FFE70298006CC006002824
:1022900017D4FFE70298006C40F0020020F4885049
:1022A000029908640298FEF709FA0299002048642E
:1022B0000298006C40F0010020F0020002990864CE
:1022C00003E001208DF80700FFE7FFE702990020F7
:1022D00081F83C00FFE79DF807008DF80F00FFE74D
:1022E0009DF80F0004B080BD80B58AB00990002031
:1022F000089007900690059004900998006842F2B3
:102300000001C4F20101884212D1FFE7FFE700207B
:10231000039043F64400C4F20200016841F4807166
:102320000160006800F4807003900398FFE73AE0D2
:102330000998006842F20021C4F20101884231D1BB
:10234000FFE7FFE70020029043F64400C4F20200DA
:10235000016841F480610160006800F480600290CF
:102360000298FFE7FFE70020019043F63000C4F237
:102370000200016841F020010160006800F02000C7
:1023800001900198FFE74FF48060049003200590CE
:102390000020069041F20040C4F2020004A901F0BE
:1023A0001FFDFFE7FFE70AB080BD000080B584B0E5
:1023B000029001910020009002980068806840051A
:1023C000002816D5FFE7029800688068C00500283D
:1023D0000FD5FFE70299086C40F020000864FFE782
:1023E0000299002081F83C00FFE701208DF80F00E2
:1023F0006DE001F0E9FE0090FFE7029800680068D8
:1024000000F00200022829D0FFE70198013020B334
:10241000FFE7019840B1FFE701F0D6FE0099401AAE
:102420000199884218D9FFE702980068006800F017
:10243000020002280FD0FFE70299086C40F0040068
:102440000864FFE70299002081F83C00FFE70320C1
:102450008DF80F003BE0FFE7FFE7CEE70298016849
:102460006FF0120008600299086C40F40070086474
:1024700002980068806810F0405F24D1FFE702985E
:10248000007E00BBFFE702980068C06A10F4700F7E
:1024900007D0FFE70298006880684005002812D442
:1024A000FFE70299086C20F4807008640298006CC1
:1024B000C004002806D4FFE70299086C40F0010030
:1024C0000864FFE7FFE700208DF80F00FFE79DF8A5
:1024D0000F0004B080BD000084B002900020019085
:1024E000FFE7029890F83C00012804D1FFE70220A2
:1024F0008DF80F00D4E00299012081F83C00FFE73D
:10250000FFE7029800688068C007F0B9FFE702980B
:102510000168886840F00100886040F2C400C2F29F
:10252000000000684DF68361C4F21B31A0FB01106E
:10253000800C00EB40000190FFE7019820B1FFE71D
:10254000019801380190F8E7FFE702980068806879
:10255000C007002800F09580FFE70298006C40F467
:10256000807040F201618843029908640298006813
:1025700040684005002809D5FFE70298006C40F448
:10258000805020F4005002990864FFE70298006C24
:10259000C004002806D5FFE70299486C20F0060029
:1025A000486403E0029900204864FFE7FFE70299CE
:1025B000002081F83C00FFE742F20030C4F2010045
:1025C0000090029801686FF022000860009840684F
:1025D000C006E8BBFFE70298006842F20001C4F2BF
:1025E0000101884224D0FFE70298006842F20011FE
:1025F000C4F20101884208D1FFE742F20430C4F27C
:1026000001000068C00698B1FFE70298006842F236
:102610000021C4F20101884219D1FFE742F20430DF
:10262000C4F20100006800F01F000F280FD8FFE778
:1026300002980068806810F0405F07D1FFE70298B9
:102640000168886840F080408860FFE7FFE717E096
:102650000298006842F20001C4F2010188420ED1E2
:10266000FFE702980068806810F0405F07D1FFE73D
:1026700002980168886840F080408860FFE7FFE7C3
:102680000AE00299086C40F0100008640299486C56
:1026900040F001004864FFE700208DF80F00FFE7DD
:1026A0009DF80F0004B0704784B002900191029829
:1026B00090F820008DF803009DF80300012805D054
:1026C000FFE79DF8030002280AD1FFE7019A02986C
:1026D000016848691043486100208DF80F0008E048
:1026E0000299486A40F48020486201208DF80F006A
:1026F000FFE79DF80F0004B07047000088B0069017
:10270000059104920393069890F820008DF8070035
:1027100006980068806800900598806808B9FFE70F
:1027200000E0FFE79DF80700012806D0FFE79DF8CD
:102730000700022840F08D80FFE79DF80300400766
:1027400000280CD4FFE79DF803000007002806D4FA
:10275000FFE79DF80300C006002871D5FFE7009849
:10276000C0F3016002900298032809D3FFE706999D
:10277000486A40F40000486201208DF81F0071E0B3
:10278000029901208840039908600598806868B91B
:10279000FFE705980168C06840EA4150069909685A
:1027A000029A01EB0211C1F880010EE005994A6816
:1027B0008868C96840EAC200084306990968029A15
:1027C00001EB0211C1F88001FFE705980069069945
:1027D0000968029A01EB0211C1F884010598007D95
:1027E00001280CD1FFE706980068029900EB01115F
:1027F000D1F8840140F48070C1F88401FFE70498A7
:10280000406806990968029A01EB0211C1F88C012F
:102810000498006806990968029A01EB0211C1F850
:10282000880106980068029900EB0111D1F8800137
:1028300040F00100C1F8800100208DF81F0011E078
:102840000699486A40F40010486201208DF81F0084
:1028500008E00699486A40F48020486201208DF81B
:102860001F00FFE79DF81F0008B0704786B0049076
:102870000391049800680190049890F820008DF866
:1028800003009DF80300012806D0FFE79DF8030030
:10289000022840F0B080FFE746F20040C4F200009A
:1028A00001900199D1F8000240F00100C1F8000246
:1028B0000199D1F8000220F47C50C1F8000203987D
:1028C000426A0199D1F8000240EA0220C1F80002F0
:1028D0000398406900F01F01012088400290029A8D
:1028E0000199D1F81C029043C1F81C020398C069F9
:1028F000F0B9FFE7029A0199D1F80C029043C1F8B0
:102900000C02039A9088D168526940EA014001990B
:1029100001EBC201C1F84002039A10889168526924
:1029200040EA0140019901EBC201C1F84402FFE70E
:102930000398C06901281ED1FFE7029A0199D1F8D6
:102940000C021043C1F80C02039A90881168526976
:1029500040EA0140019901EBC201C1F84002039A2B
:1029600090899168526940EA0140019901EBC201E6
:10297000C1F84402FFE70398806940B9FFE7029A73
:102980000199D1F804029043C1F8040207E0029AC9
:102990000199D1F804021043C1F80402FFE703983B
:1029A000006940B9FFE7029A0199D1F814029043F7
:1029B000C1F8140207E0029A0199D1F814021043F9
:1029C000C1F81402FFE70398006A012808D1FFE765
:1029D000029A0199D1F81C021043C1F81C02FFE7CA
:1029E0000199D1F8000220F00100C1F80002002096
:1029F0008DF8170008E00499486A40F48020486286
:102A000001208DF81700FFE79DF8170006B070470A
:102A100081B0009001B0704786B00490039102929B
:102A20000193049890F820008DF803009DF80300AE
:102A3000012806D0FFE79DF80300022840F0D78068
:102A4000FFE7039880B9FFE704980068C068800733
:102A500048B9FFE70499486A40F400104862012031
:102A60008DF81700CCE00FE004980068006980073B
:102A700048B9FFE70499486A40F400104862012011
:102A80008DF81700BCE0FFE704980068039900EB9D
:102A90000110D0F8B00100F004000299886002989B
:102AA000806858B9FFE704980068039900EB0110AB
:102AB000D0F8B001400D029908600AE0049800685F
:102AC000039900EB0110D0F8B001C00802994860EA
:102AD000FFE704980068039900EB0110D0F8B001FB
:102AE00000F002000299C86004980068039900EBA6
:102AF0000110D0F8B40100F00F00029908610498A9
:102B00000068039900EB0110D0F8B40180B2000A0C
:102B10000299886104980068039900EB0110D0F8CD
:102B2000B401000C0299486104980068039900EB15
:102B30000110D0F8B8010199087004980068039951
:102B400000EB0110D0F8B801000A01994870049810
:102B50000068039900EB0110D0F8B801000C01994E
:102B6000887004980068039900EB0110D0F8B80150
:102B7000000E0199C87004980068039900EB0110D9
:102B8000D0F8BC010199087104980068039900EB22
:102B90000110D0F8BC01000A01994871049800683E
:102BA000039900EB0110D0F8BC01000C0199887169
:102BB00004980068039900EB0110D0F8BC01000EE6
:102BC0000199C871039838B9FFE704980168C8688B
:102BD00040F02000C86006E004980168086940F0F1
:102BE00020000861FFE700208DF8170008E0049935
:102BF000486A40F48020486201208DF81700FFE702
:102C00009DF8170006B0704780B58AB00990002083
:102C10000890099800684069079009980068406822
:102C20000690099800688068059009980068C06857
:102C30000490099800680069039009980068806909
:102C400002909DF81C00C007002800F09480FFE768
:102C50009DF81400C00758B3FFE7099801680120E8
:102C600088609DF814008007002804D5FFE70998C4
:102C700000F056FC1BE09DF814004007002805D525
:102C8000FFE7089840F4006008900FE09DF81400FA
:102C90000007002805D5FFE7089840F48050089009
:102CA00003E0099800F038FCFFE7FFE7FFE7FFE7E4
:102CB0009DF81500C00760B3FFE7099801684FF45D
:102CC000807088609DF815008007002804D5FFE714
:102CD000099800F02DFC1BE09DF815004007002826
:102CE00005D5FFE7089840F4005008900FE09DF8E4
:102CF00015000007002805D5FFE7089840F480403C
:102D0000089003E0099800F00FFCFFE7FFE7FFE7FA
:102D1000FFE79DF81600C00760B3FFE70998016858
:102D20004FF4803088609DF816008007002804D595
:102D3000FFE7099800F004FC1BE09DF8160040072F
:102D4000002805D5FFE7089840F4004008900FE000
:102D50009DF816000007002805D5FFE7089840F405
:102D60008030089003E0099800F0E6FBFFE7FFE7FA
:102D7000FFE7FFE7FFE79DF81C000007002810D5DC
:102D8000FFE79DF81000C006002809D5FFE7089866
:102D900040F400700890099801681020C860FFE7AF
:102DA000FFE79DF81C00400700280FD5FFE79DF8BE
:102DB00010000007002808D5FFE7099801680820DF
:102DC000C860099800F0CCFAFFE7FFE79DF81C0007
:102DD000800700280BD5FFE709980068C0688007C6
:102DE00020B1FFE7099800F0BFFAFFE7FFE79DF881
:102DF0001C004006002810D5FFE79DF80C00C00617
:102E0000002809D5FFE7089840F4806008900998E9
:102E1000016810200861FFE7FFE79DF81C008006AD
:102E200000280FD5FFE79DF80C000007002808D503
:102E3000FFE70998016808200861099800F01AFB6B
:102E4000FFE7FFE79DF81C00C00600280BD5FFE751
:102E5000099800680069800720B1FFE7099800F031
:102E60000DFBFFE7FFE79DF81E00800700280FD548
:102E7000FFE79DF81800C006002808D5FFE709986D
:102E8000016810204860099800F0FCFAFFE7FFE7AE
:102E90009DF81E00C00778B1FFE79DF818000007F5
:102EA000002808D5FFE709980168082048600998BC
:102EB00000F04AFBFFE7FFE79DF81D000006002831
:102EC00040F18D80FFE79DF818004007002840F191
:102ED0008180FFE79DF81D00C00750B1FFE79DF816
:102EE0000800C00728B1FFE7089840F001000890EB
:102EF000FFE79DF81D00800700280BD5FFE79DF830
:102F000008008007002805D5FFE7089840F0020078
:102F10000890FFE79DF81D00400700280BD5FFE74C
:102F20009DF808004007002805D5FFE7089840F005
:102F300004000890FFE79DF81D000007002848D511
:102F4000FFE79DF8080010F0700F42D0FFE70298ED
:102F500000F0700001460191102814D0FFE701989D
:102F6000202815D0FFE70198302816D0FFE70198F8
:102F7000402817D0FFE70198502818D0FFE70198A4
:102F8000602819D01DE0089840F00800089019E06A
:102F9000089840F01000089014E0089840F02000D5
:102FA00008900FE0089840F0400008900AE0089868
:102FB00040F08000089005E0089840F48070089088
:102FC00000E0FFE709980168886920F070008861D7
:102FD000FFE7FFE70998016804204860FFE70898C9
:102FE00048B1FFE7089A0999486A1043486209986E
:102FF000FFF70EFDFFE70AB080BD000080B584B08A
:103000000290029820B9FFE701208DF80F00E0E060
:10301000029890F8200020B9FFE7029800F0DEF84F
:10302000FFE702980168086840F00100086001F0BD
:10303000CBF80190FFE7029800684068C007A8B984
:10304000FFE701F0C1F80199401A0B280DD3FFE703
:103050000299486A40F4003048620299052081F8DC
:10306000200001208DF80F00B3E0E4E7029801682A
:10307000086820F00200086001F0A6F80190FFE760
:103080000298006840688007002815D5FFE701F026
:103090009BF80199401A0B280DD3FFE70299486A63
:1030A00040F4003048620299052081F82000012098
:1030B0008DF80F008DE0E3E70298007E012807D12C
:1030C000FFE702980168086840F08000086006E0A9
:1030D00002980168086820F080000860FFE7029805
:1030E000407E012807D1FFE702980168086840F098
:1030F0004000086006E002980168086820F040007F
:103100000860FFE70298807E012807D1FFE7029858
:103110000168086840F02000086006E00298016835
:10312000086820F020000860FFE70298C07E0128B0
:1031300007D1FFE702980168086820F010000860D6
:1031400006E002980168086840F010000860FFE798
:103150000298007F012807D1FFE7029801680868FC
:1031600040F00800086006E002980168086820F056
:1031700008000860FFE70298407F012807D1FFE7B9
:1031800002980168086840F00400086006E00298B0
:103190000168086820F004000860FFE7029B1968D6
:1031A0005A689868D3F80CC040EA0C00D3F810C0F5
:1031B00040EA0C005B691843013A1043C861029968
:1031C00000204862029A012182F820108DF80F0039
:1031D000FFE79DF80F0004B080BD000080B590B0FF
:1031E0000F9000200E900D900C900B900A900F986D
:1031F000006846F20041C4F20001884249D1FFE76D
:1032000041F2DC70C2F20000016801310160006827
:10321000012812D1FFE7FFE70020099043F64000A4
:10322000C4F20200016841F000710160006800F022
:10323000007009900998FFE7FFE7FFE7002008907A
:1032400043F63000C4F20200016841F00801016059
:10325000006800F0080008900898FFE703200A9033
:1032600002210B91002103910C910D9009200E90E9
:1032700040F60040C4F202000AA900F0B1FD039A32
:1032800014200490052101F07BF8049801F06EF8F9
:1032900064E00F98006846F60001C4F2000188421D
:1032A0005BD1FFE7FFE70020079043F64000C4F240
:1032B0000200016841F080610160006800F08060F8
:1032C00007900798FFE741F2DC70C2F20000016846
:1032D000013101600068012812D1FFE7FFE70020FB
:1032E000069043F64000C4F20200016841F000710C
:1032F0000160006800F0007006900698FFE7FFE7A5
:10330000FFE70020059043F63000C4F20200016898
:1033100041F002010160006800F00200059005988C
:10332000FFE760200A9002200B90002001900C9093
:1033300003200D9009200E9040F20040C4F20200DC
:103340000AA900F04DFD019A40200290052101F0EC
:1033500017F8029801F00AF8FFE7FFE710B080BD08
:1033600081B0009001B0704780B58CB00B900B9885
:10337000002104AA02ABFFF74FFB0B9843F6501154
:10338000C2F20001884234D1FFE70498019040F274
:103390000521884222D0FFE7019840F2312188427E
:1033A00006D0FFE7019840F2013188420CD01FE0BF
:1033B00043F2B001C2F2000141F6E022C2F2000283
:1033C00002A8FDF78FFF13E040F2F820C2F20000E0
:1033D00000F50C7002A910F0F3FD09E040F2F820AE
:1033E000C2F2000000F6A80002A909F0FFFBFFE707
:1033F000FFE70B9843F67811C2F20001884236D1FC
:10340000FFE70498A0F201200146009103282DD87F
:103410000099DFE801F0020C162040F2F820C2F219
:10342000000000F52D6002A909F04CFC1EE040F2FE
:10343000F820C2F2000000F6F84002A909F042FCB0
:1034400014E040F2F820C2F2000000F5726002A918
:1034500009F038FC0AE040F2F820C2F2000041F224
:103460004811084402A909F02DFCFFE7FFE70CB062
:1034700080BD000081B0009001B0704781B0009025
:1034800001B0704781B0009001B0704780B584B042
:103490000290029890F8200001282FD1FFE70299AE
:1034A000022081F8200002980168086820F00100DD
:1034B000086000F089FE0190FFE70298006840680C
:1034C000C007A8B1FFE700F07FFE0199401A0B2862
:1034D0000DD3FFE70299486A40F400304862029930
:1034E000052081F8200001208DF80F000FE0E4E7AF
:1034F0000299002048628DF80F0008E00299486A9E
:1035000040F40020486201208DF80F00FFE79DF88D
:103510000F0004B080BD000081B0009001B0704782
:1035200081B0009001B0704781B0009001B0704749
:1035300081B0009001B0704781B0009001B0704739
:1035400081B0009001B0704781B0009001B0704729
:1035500080B582B00090009820B9FFE701208DF877
:10356000070011E00098407938B9FFE70099002082
:103570000871009800F00CF8FFE7009901204871ED
:1035800000208DF80700FFE79DF8070002B080BD1E
:1035900082B001900198006843F20001C4F2020178
:1035A000884212D1FFE7FFE70020009043F6300089
:1035B000C4F20200016841F480510160006800F427
:1035C000805000900098FFE7FFE702B070470000CE
:1035D00080B584B002900298806D019000F0F4FDF7
:1035E0000090029890F8350002280DD0FFE702996C
:1035F00080204865FFE70299002081F83400FFE74A
:1036000001208DF80F0055E002980168086820F04D
:103610001600086002980168486920F0800048613F
:103620000298006C20B9FFE70298806C38B1FFE780
:1036300002980168086820F008000860FFE7029817
:103640000168086820F001000860FFE70298006840
:103650000068C007C8B1FFE700F0B6FD0099401A46
:10366000062811D3FFE7029920204865029903201C
:1036700081F83500FFE70299002081F83400FFE768
:1036800003208DF80F0015E0E0E70298C16D3F20A0
:103690008840019988600299012081F83500FFE790
:1036A0000299002081F83400FFE7FFE700208DF841
:1036B0000F00FFE79DF80F0004B080BD82B00090BE
:1036C000009890F83500022807D0FFE70099802085
:1036D000486501208DF807000EE00099052081F86B
:1036E000350000980168086820F001000860FFE7D5
:1036F00000208DF80700FFE79DF8070002B0704733
:1037000080B584B00290029820B9FFE701208DF8BF
:103710000F004BE0029890F83500022804D1FFE733
:1037200002208DF80F0041E002980168086820F03F
:10373000010008600298016800200090086002996A
:103740000968486002990968886002990968C86038
:10375000029909680861029801682120486102986D
:10376000FDF7FEFF0146009801910299C863029996
:10377000086402994864029988640299C8640299AD
:1037800008650299CA6D3F219140019A91600299A2
:103790004865029981F83500FFE70299002081F819
:1037A0003400FFE700208DF80F00FFE79DF80F00C1
:1037B00004B080BD80B586B005900020039040F233
:1037C000C400C2F20000006848F2B511C1F64E31E3
:1037D000A0FB0110800A02900598806D019001986D
:1037E0000068049004980599C96DC8400007002836
:1037F0001AD5FFE70598006800684007002812D531
:10380000FFE705980168086820F004000860059843
:10381000C16D08208840019988600599486D40F085
:1038200001004865FFE7FFE704980599C96DC840A6
:10383000C007A0B1FFE705980068406900060028AE
:103840000CD5FFE70598C16D01208840019988607B
:103850000599486D40F002004865FFE7FFE70498CE
:103860000599C96DC8404007002814D5FFE70598A1
:1038700000680068800700280CD5FFE70598C16D37
:1038800004208840019988600599486D40F0040043
:103890004865FFE7FFE704980599C96DC840C00671
:1038A000002847D5FFE70598006800680007002852
:1038B0003FD5FFE70598C16D1020884001998860C9
:1038C000059800680068400300281AD5FFE70598AE
:1038D000006800680003002809D4FFE70598006C21
:1038E00020B1FFE70598016C8847FFE708E00598DD
:1038F000806C20B1FFE70598816C8847FFE7FFE700
:1039000016E0059800680068C005002807D4FFE7A6
:1039100005980168086820F008000860FFE705982E
:10392000006C20B1FFE70598016C8847FFE7FFE7CF
:10393000FFE7FFE704980599C96DC8408006002895
:1039400040F18D80FFE7059800680068C0060028F8
:1039500040F18480FFE70598C16D202088400199DF
:103960008860059890F83500052834D1FFE7059860
:103970000168086820F01600086005980168486929
:1039800020F0800048610598006C20B9FFE7059899
:10399000806C38B1FFE705980168086820F00800DE
:1039A0000860FFE70598C16D3F2088400199886055
:1039B0000599012081F83500FFE70599002081F87D
:1039C0003400FFE70598006D20B1FFE70598016D11
:1039D0008847FFE77BE005980068006840030028FF
:1039E0001AD5FFE70598006800680003002809D48D
:1039F000FFE70598406C20B1FFE70598416C8847C8
:103A0000FFE708E00598C06B20B1FFE70598C16BA0
:103A10008847FFE7FFE720E0059800680068C005D9
:103A2000002811D4FFE705980168086820F010000D
:103A300008600599012081F83500FFE7059900200D
:103A400081F83400FFE7FFE70598C06B20B1FFE77E
:103A50000598C16B8847FFE7FFE7FFE7FFE7059899
:103A6000406DA0B3FFE70598406DC00730B3FFE796
:103A70000599052081F8350005980168086820F04F
:103A800001000860FFE70398013003900299884223
:103A900001D9FFE707E0FFE7059800680068C00765
:103AA0000028F0D1FFE70599012081F83500FFE7F4
:103AB0000599002081F83400FFE7FFE70598C06C06
:103AC00020B1FFE70598C16C8847FFE7FFE706B024
:103AD00080BD000080B586B004900020039000F007
:103AE00073FB0290049820B9FFE701208DF81700BE
:103AF000A3E00498406A08B1FFE7FFE704990220B9
:103B000081F83500FFE70499002081F83400FFE7D1
:103B100004980168086820F001000860FFE7049835
:103B200000680068C00790B1FFE700F04DFB029904
:103B3000401A06280AD3FFE7049920204865049913
:103B4000032081F835008DF8170076E0E7E7049848
:103B5000006800680390039848F23F01CFF210011B
:103B600008400390049900914868D1F808C0CB68D8
:103B70000A6940EA0C00184310434A6910438A69F5
:103B80001043CA691043096A01430398084303902C
:103B90000498406A042808D1FFE70499C86A096BB1
:103BA0000143039808430390FFE7039804990968C9
:103BB00008600498006840690390039820F00700AB
:103BC00003900498416A0398084303900498406A5C
:103BD00004281AD1FFE70498816A039808430390E8
:103BE0000498C06A80B1FFE70498FDF7E5FD50B185
:103BF000FFE70499402048650499012081F83500C9
:103C00008DF8170019E0FFE7FFE7039804990968AA
:103C100048610498FDF7A4FD01900498C16D3F2010
:103C2000884001998860049900204865049A012120
:103C300082F835108DF81700FFE79DF8170006B0E1
:103C400080BD000080B588B0069005910492039372
:103C500000208DF80B000698806D0190FFE7069814
:103C600090F83400012804D1FFE702208DF81F00EE
:103C700045E00699012081F83400FFE7FFE7069848
:103C800090F8350001282BD1FFE70699022081F832
:103C9000350006990020486506980599049A039B0B
:103CA000FDF702FE0698C16D3F20884001998860AB
:103CB00006980168086840F0160008600698006CD5
:103CC00038B1FFE706980168086840F0080008600E
:103CD000FFE706980168086840F00100086009E005
:103CE000FFE70699002081F83400FFE702208DF8F5
:103CF0000B00FFE79DF80B008DF81F00FFE79DF814
:103D00001F0008B080BD000080B584B0039000F0B3
:103D10005BFA0290039801900198013048B1FFE7E7
:103D200040F26420C2F2000001780198084401903A
:103D3000FFE7FFE700F048FA0299401A019988422C
:103D400001D2FFE7F6E704B080BD000080B582B085
:103D5000ADF80600BDF80600022822D1FFE744F2C4
:103D60000C20C2F2000044F29C61C2F2000110F08B
:103D700005F98DF805009DF8050058B1FFE744F2FC
:103D80000C20C2F2000044F29C61C2F2000110F06B
:103D9000CFF9FFE744F20C20C2F2000010F0E8F97E
:103DA000FFE702B080BD000080B582B0ADF806002C
:103DB00043F61440C4F201000068BDF80610084242
:103DC0000CD0FFE7BDF8060043F61441C4F2010130
:103DD0000860BDF80600FFF7B9FFFFE702B080BD3D
:103DE0008EB00D900C9100200A90099008900B90D5
:103DF000FFE70B980F2800F2CC81FFE70B99012019
:103E000088400A900C9800680A990840099009981F
:103E10000A99884240F0B881FFE70C98406800F0AA
:103E20000300012807D0FFE70C98406800F003006A
:103E300002282FD1FFE70D98806808900B98410069
:103E4000032000FA01F10898884308900C98C06894
:103E50000B99490000FA01F1089808430890089866
:103E60000D9988600D98406808900B99012000FA20
:103E700001F10898884308900C984068C0F300103E
:103E80000B9900FA01F108980843089008980D99D9
:103E90004860FFE70C98406800F00300032818D042
:103EA000FFE70D98C06808900B984100032000FAC6
:103EB00001F10898884308900C9880680B99490094
:103EC00000FA01F108980843089008980D99C86015
:103ED000FFE70C98406800F00300022826D1FFE7B6
:103EE0000D980B996FF0030202EA51010844006A31
:103EF00008900B9800F0070081000F2000FA01F1F4
:103F00000898884308900C9800690B9901F0070104
:103F1000890000FA01F108980843089008980D9963
:103F20000B9B02EA530211440862FFE70D980068F8
:103F300008900B984100032000FA01F1089888438B
:103F400008900C98406800F003000B99490000FAB3
:103F500001F108980843089008980D9908600C989A
:103F600080798007002800F00E81FFE7FFE700203E
:103F7000079043F64400C4F20200016841F4804116
:103F80000160006800F4804007900798FFE70B98F5
:103F900020F0030043F60801C4F2010140580890E4
:103FA0000B9800F0030081000F2000FA01F108983F
:103FB000884308900D980021C4F20201884203D181
:103FC000FFE7002006905EE00D9840F20041C4F249
:103FD0000201884203D1FFE70120059050E00D98CF
:103FE00040F60001C4F20201884203D1FFE702203B
:103FF000049042E00D9840F60041C4F2020188426C
:1040000003D1FFE70320039034E00D9841F2000153
:10401000C4F20201884203D1FFE70420029026E0A7
:104020000D9841F20041C4F20201884203D1FFE73A
:104030000520019018E00D9841F60001C4F202013C
:10404000884203D1FFE7062000900AE00D9941F66F
:104050000042C4F202020820914208BF07200090EB
:10406000FFE700980190FFE701980290FFE70298B0
:104070000390FFE703980490FFE704980590FFE79B
:1040800005980690FFE70698C0B20B9901F003016E
:10409000890000FA01F108980843089008980B99E4
:1040A00021F0030143F60802C4F20102885043F6EE
:1040B0000840C4F2010000680890099908988843F4
:1040C00008900C988079C006002805D5FFE709996B
:1040D000089808430890FFE7089843F60841C4F29F
:1040E0000101086043F60C40C4F20100006808902A
:1040F00009990898884308900C98807980060028D0
:1041000005D5FFE70999089808430890FFE7089844
:1041100043F60C41C4F20101086043F60440C4F2C6
:1041200001000068089009990898884308900C9845
:1041300080798007002805D5FFE70999089808438A
:104140000890FFE7089843F60441C4F201010860B3
:1041500043F60040C4F201000068089009990898ED
:10416000884308900C988079C00728B1FFE7099927
:10417000089808430890FFE7089843F60041C4F206
:1041800001010860FFE7FFE7FFE70B9801300B90A4
:104190002FE60EB07047000082B00190ADF802101B
:1041A0008DF801209DF8010028B1FFE7BDF802005D
:1041B0000199886105E0BDF8020000040199886159
:1041C000FFE702B0704700004AF6E820C2F20000A4
:1041D0000068704740F26420C2F2000002784AF69C
:1041E000E821C2F20001086810440860704700002E
:1041F00080B543F60041C4F20201086840F4007043
:104200000860086840F480600860086840F48070C6
:104210000860032000F0CEF80F2000F005F800F051
:1042200079F8002080BD000080B58CB00B90002094
:1042300004900390FFE70020009043F64000C4F292
:104240000200016841F001010160006800F0010016
:1042500000900098FFE706A802A901F0ADFB0998BD
:104260000490049820B9FFE701F0D6FB059004E024
:1042700001F0D2FB40000590FFE705984DF6836101
:10428000C4F21B31A0FB01014FF0FF3000EB914065
:10429000039044F2AC20C2F200004FF08041016074
:1042A00040F2E731C1600399416000210161816002
:1042B000816102F0E3FD8DF807009DF8070028BB3F
:1042C000FFE744F2AC20C2F2000002F0BDFE8DF820
:1042D00007009DF80700C0B9FFE71C2000F046F872
:1042E0000B980F280CD8FFE70B991C20002200F038
:1042F00047F80B9840F26821C2F20001086003E021
:1043000001208DF80700FFE7FFE7FFE79DF80700B2
:104310000CB080BD80B582B0FFE70020019043F66D
:104320004400C4F20200016841F480410160006869
:1043300000F4804001900198FFE7FFE70020009023
:1043400043F64000C4F20200016841F08051016070
:10435000006800F0805000900098FFE76FF00100C7
:104360000F21002200F00CF802B080BD80B582B0B1
:104370008DF807009DF9070010F056FA02B080BDD5
:1043800080B586B08DF8170004910392002002904A
:1043900010F062FA02909DF91700019002980499BA
:1043A000039A07F007F90146019810F05DFA06B08C
:1043B00080BD000080B582B00190019810F076FABF
:1043C00002B080BD82B001908DF8031002B070473A
:1043D00082B00190ADF80210BDF8020001990968A1
:1043E0004862002002B0704784B003908DF80B1033
:1043F000ADF8082003980068406A00909DF80B0013
:1044000048B9FFE7BDF80810009840EA0140039959
:104410000968886233E003980068816A009800EBBD
:104420001140009000208DF80700FFE79DF807007D
:104430009DF80B100139884213D2FFE703980068FA
:104440009DF8071000EB8100D0F80411009800EBF4
:1044500011400090FFE79DF8070001308DF807003C
:10446000E4E7BDF80810009840EA014003990968A4
:104470009DF80B2001EB8201C1F80001FFE700204D
:1044800004B0704780B582B001900198D0F808055B
:104490000DF070FA02B080BD80B582B001908DF849
:1044A0000310019AD2F808059DF8031001EBC1032F
:1044B00002EB8302D26C0DF0B9F802B080BD0000AF
:1044C00080B582B001908DF80310019AD2F80805EA
:1044D0009DF8031001EBC10302EB8302D2F88C229A
:1044E0000DF06EF902B080BD80B582B001900198E8
:1044F000D0F808050DF044FA02B080BD80B584B054
:1045000003908DF80B109DF80B00000600280CD5C9
:10451000FFE703989DF80B1001F00F0101EBC101BB
:1045200000EB81003C3001900CE003989DF80B10EB
:1045300001F00F0101EBC10100EB810000F51F70DC
:104540000190FFE70398006801990FF06FF88DF86C
:104550000A009DF80A0004B080BD000080B584B058
:1045600002908DF807109DF80700000600280FD56F
:10457000FFE702989DF8071001F00F0101EBC10160
:1045800000EB81003C3000900099012048700FE062
:1045900002989DF8071001F00F0101EBC10100EB3B
:1045A000810000F51F700090009900204870FFE71F
:1045B0009DF8070000F00F0000990870FFE70298CF
:1045C00090F8BC04012804D1FFE702208DF80F0009
:1045D00014E00299012081F8BC04FFE7FFE702988C
:1045E000006800990EF04AFAFFE70299002081F86E
:1045F000BC04FFE700208DF80F00FFE79DF80F00D7
:1046000004B080BD80B584B002908DF807109DF88D
:10461000070000F00F0002994968884204D9FFE7BB
:1046200001208DF80F004DE09DF8070000060028DE
:104630000FD5FFE702989DF8071001F00F0101EB7D
:10464000C10100EB81003C300090009901204870CE
:104650000FE002989DF8071001F00F0101EBC10176
:1046600000EB810000F51F70009000990020487059
:10467000FFE70099002088709DF8070000F00F0008
:1046800000990870FFE7029890F8BC04012804D153
:10469000FFE702208DF80F0014E00299012081F855
:1046A000BC04FFE7FFE70298006800990EF066FD82
:1046B000FFE70299002081F8BC04FFE700208DF895
:1046C0000F00FFE79DF80F0004B080BD82B001909D
:1046D0008DF8031001989DF8031001F00F0101EB14
:1046E000C10100EB8100D0F89C0202B070470000CD
:1046F00080B586B004908DF80F10ADF80C208DF8C1
:104700000B3000208DF80A009DF80F0000060028ED
:104710000FD5FFE704989DF80F1001F00F0101EB92
:10472000C10100EB81003C300190019901204870EB
:104730000FE004989DF80F1001F00F0101EBC1018B
:1047400000EB810000F51F70019001990020487076
:10475000FFE79DF80F0000F00F0001990870BDF809
:104760000C000199C8609DF80B000199087101982F
:10477000407820B1FFE7019908780881FFE79DF8AC
:104780000B00022804D1FFE7019900204871FFE7E0
:10479000FFE7049890F8BC04012804D1FFE7022049
:1047A0008DF8170015E00499012081F8BC04FFE79B
:1047B000FFE70498006801990EF01AF8FFE70499E2
:1047C000002081F8BC04FFE79DF80A008DF817006F
:1047D000FFE79DF8170006B080BD000080B586B0E9
:1047E00005908DF813100392029305989DF813100D
:1047F00001F00F0101EBC10100EB810000F51F701A
:1048000001900398019908610298019988610199C2
:1048100000200862019948709DF8130000F00F0015
:104820000199087005980069012804D1FFE70398F1
:1048300001994861FFE79DF81300000738B9FFE7C9
:10484000059A10680199127C0EF04CFB06E0059A5F
:1048500010680199127C0EF035FDFFE7002006B0CC
:1048600080BD000080B584B002908DF807109DF8DF
:10487000070000F00F0002994968884204D9FFE759
:1048800001208DF80F0058E09DF807000006002871
:104890000FD5FFE702989DF8071001F00F0101EB1B
:1048A000C10100EB81003C3000900099012048706C
:1048B0000DE002989DF8071001EBC10100EB8100AB
:1048C00000F51F700090009900204870FFE70099E4
:1048D000012088709DF8070000F00F000099087013
:1048E000FFE7029890F8BC04012804D1FFE70220FA
:1048F0008DF80F0021E00299012081F8BC04FFE748
:10490000FFE70298006800990EF088FC9DF8070008
:10491000000740B9FFE7029A1068117C02F2C44216
:104920000EF0DCFBFFE7FFE70299002081F8BC04F2
:10493000FFE700208DF80F00FFE79DF80F0004B09F
:1049400080BD000080B586B005908DF813100392ED
:10495000029305989DF8131001F00F0101EBC101BE
:1049600000EB81003C3001900398019908610298A6
:10497000019988610199002008620199012048701D
:104980009DF8130000F00F00019908700598006968
:10499000012804D1FFE7039801994861FFE79DF8DA
:1049A0001300000738B9FFE7059A10680199127CD7
:1049B0000EF098FA06E0059A10680199127C0EF044
:1049C00081FCFFE7002006B080BD000080B58CB000
:1049D0000B900B9800680A900A9809900B98006851
:1049E0000EF066FF002840F00D84FFE70B9800688A
:1049F0000EF0CAFF10B9FFE700F004BC0998D0F828
:104A00000808C0F30D200B99C1F8FC040B9800684E
:104A10000EF0BAFF8007002807D5FFE70B98016862
:104A2000486900F002004861FFE70B9800680EF04B
:104A3000ABFFC006002862D5FFE70B9801688869C4
:104A400020F0100088610A98006A02900B98029981
:104A500001F00F0101EBC10100EB810000F51F70B7
:104A60000890029800F4F0110220B0EB514F23D1CE
:104A7000FFE7BDF8080047F6F07108421BD0FFE7DA
:104A80000A9808990969029AC2F30A120EF08AFF7D
:104A9000029847F6F07100EA0103089A106900EBEA
:104AA00013101061029800EA01020899086A00EBED
:104AB00012100862FFE71BE0029800F4F0110620D4
:104AC000B0EB514F12D1FFE70A980B9901F2C441A4
:104AD00008220EF067FF029847F6F07100EA010223
:104AE0000899086A00EB1210086200E0FFE7FFE790
:104AF0000B980168886940F010008861FFE70B9807
:104B000000680EF041FF0003002840F1A680FFE797
:104B1000002004900B9800680EF0E4FE0690FFE77A
:104B20000698002800F09880FFE79DF81800C0075D
:104B3000002800F08A80FFE70B9800689DF81010AD
:104B40000EF00AFF05909DF81400C00760B1FFE762
:104B50000998049900EB41110120C1F8080B0B984A
:104B6000049906F04FFFFFE79DF8140000070028A6
:104B70000CD5FFE70998049900EB41110820C1F812
:104B8000080B0B98049906F0F7FEFFE79DF8140058
:104B9000C006002808D5FFE70998049900EB4111E9
:104BA0001020C1F8080BFFE79DF8140080070028CB
:104BB0002DD5FFE70A9840690006002808D5FFE7D1
:104BC0000999D1F8040840F48060C1F80408FFE7AF
:104BD0000B98049901EBC10100EB810000F51F70F7
:104BE00008900898C078012809D1FFE708990020AB
:104BF000C8700B989DF8101000F014FBFFE709989F
:104C0000049900EB41110220C1F8080BFFE79DF861
:104C100014008006002808D5FFE70998049900EBE6
:104C200041112020C1F8080BFFE79DF81500800610
:104C3000002809D5FFE70998049900EB41114FF4CA
:104C40000050C1F8080BFFE7FFE70498013004901B
:104C500006984008069063E7FFE70B9800680EF09F
:104C600093FE4003002840F1C680FFE70B980068E0
:104C70000EF026FE069000200490FFE7069800281C
:104C800000F0B880FFE79DF81800C007002800F08A
:104C9000AA80FFE70B9800689DF810100EF034FE14
:104CA00005909DF81400C00700283ED0FFE7049847
:104CB00000F00F01012000FA01F10391039B099A12
:104CC000D2F834189943C2F834180999049A01EBC0
:104CD0004211C1F808090B98006901281FD1FFE7AC
:104CE0000B98049901EBC10100EB81018A6CC86C3F
:104CF0001044C864049888B9FFE70B98049901EB45
:104D0000C10100EB8100406D40B9FFE70B990868D5
:104D100001F2C44201210EF0E1F9FFE7FFE70B9831
:104D20009DF81010FFF7B8FBFFE79DF8140000078F
:104D3000002808D5FFE70998049900EB41110820E5
:104D4000C1F80809FFE79DF81400C006002808D53F
:104D5000FFE70998049900EB41111020C1F80809F8
:104D6000FFE79DF814004006002808D5FFE70998E2
:104D7000049900EB41114020C1F80809FFE79DF8B4
:104D800014008007002822D5FFE70A9804990EF046
:104D900025FD0B98049901EBC10100EB81003C302B
:104DA00008900898C078012809D1FFE708990020E9
:104DB000C8700B989DF8101000F026FAFFE70998CC
:104DC000049900EB41110220C1F80809FFE79DF8A2
:104DD00014000006002805D5FFE70B98049906F09B
:104DE000F5FEFFE7FFE704980130049006984008BD
:104DF000069043E7FFE70B9800680EF0C5FDC00F73
:104E000000B3FFE70999D1F8040820F00100C1F8C8
:104E100004080B9890F8F404012808D1FFE70B98D8
:104E2000002180F8F4140B98FFF7CCFA03E00B98FC
:104E300000F0E2FBFFE70B980168486900F00040D2
:104E40004861FFE70B9800680EF09EFD0005002802
:104E500011D5FFE70998D0F80808C00720B1FFE78F
:104E60000B9800F057FCFFE70B980168486900F4C5
:104E700000604861FFE70B9800680EF085FDC004F4
:104E8000002840F18680FFE70999D1F8040820F056
:104E90000100C1F804080B98006810210EF09EFC78
:104EA00000200790FFE707980B994968884231D2A4
:104EB000FFE70998079900EB41114FF67F30C1F8E1
:104EC00008090999079A01EB4212D2F8001921F456
:104ED0000011C2F800190999079A01EB4211C1F8B3
:104EE000080B0998079900EB4111D1F8000B20F449
:104EF0000010C1F8000B0998079900EB4111D1F897
:104F0000000B40F00060C1F8000BFFE7079801308C
:104F10000790C8E70999D1F81C0840F00110C1F8C2
:104F20001C080B98006B78B1FFE70999D1F8840849
:104F300040F00B00C1F884080999D1F8440840F00A
:104F40000B00C1F844080FE00999D1F8140842F2A7
:104F50002B021043C1F814080999D1F8100840F049
:104F60000B00C1F81008FFE70999D1F8000820F4F8
:104F7000FE60C1F800080B9A1068117C02F2C4426E
:104F80000EF0ACF80B980168486900F48050486155
:104F9000FFE70B9800680EF0F7FC800400281FD58F
:104FA000FFE70B9800680DF093FC0B9800680EF07B
:104FB00059FC0B99C8600B980068019000F026FD21
:104FC000014601980B9A127B0EF0E4FD0B9800F05D
:104FD000E9FA0B980168486900F400504861FFE75E
:104FE0000B9800680EF0D0FC000700280AD5FFE7F8
:104FF0000B9800F00BFB0B980168486900F0080063
:105000004861FFE70B9800680EF0BEFC0006002820
:1050100025D5FFE70A99886920F080008861012082
:105020000490FFE704980B994968884216D2FFE77D
:105030000B98049901EBC10100EB810090F87F020D
:10504000012806D1FFE70B989DF81010FFF756FADC
:10505000FFE7FFE7049801300490E3E7FFE70B98D0
:1050600000680EF091FCC00200283ED5FFE7012049
:105070000490FFE704980B99496888422ED2FFE715
:105080000998049900EB4110D0F8000902900B98A0
:10509000049901EBC10100EB810090F84000012868
:1050A00017D1FFE79DF80B000006002811D5FFE798
:1050B0000B98049901EBC10100EB8101012081F8FB
:1050C0003F000B989DF8101041F08001FFF716FA91
:1050D000FFE7FFE7049801300490CBE70B980168E5
:1050E000486900F480104861FFE70B9800680EF0F3
:1050F0004BFC8002002855D5FFE701200490FFE714
:1051000004980B994968884245D2FFE709980499A9
:1051100000EB4110D0F8000B02900B98049901EBC2
:10512000C10100EB810090F8800201282ED1FFE739
:105130009DF80B000006002828D5FFE7029800F430
:1051400080300B99D1F8FC1401F0010188421DD187
:10515000FFE70B98049901EBC10100EB81010120ED
:1051600081F87F020A99886940F0800088610A9876
:1051700040690006002808D4FFE70999D1F804081F
:1051800040F40070C1F8040805E0FFE7FFE7049869
:1051900001300490B4E70B980168486900F40010EE
:1051A0004861FFE70B9800680EF0EEFB4000002816
:1051B0000AD5FFE70B98FFF765F90B980168486976
:1051C00000F080404861FFE70B9800680EF0DCFBC0
:1051D0004007002815D5FFE70B980068406802904B
:1051E0009DF808004007002804D5FFE70B98FFF75B
:1051F0007BF9FFE7029A0B98016848681043486002
:10520000FFE7FFE70CB080BD80B582B001908DF85C
:1052100003100198D0F808059DF803100CF04CFC21
:1052200002B080BD80B582B001908DF80310019866
:10523000D0F808059DF803100CF076FC02B080BD94
:105240002DE9F04F97B01590159820B9FFE7012090
:105250008DF85B0049E1159800681490159890F856
:10526000BD0440B9FFE71599002081F8BC041598EA
:1052700000F040F9FFE71599032081F8BD04149868
:10528000C06BC005002804D4FFE715990020086111
:10529000FFE7159800680DF01BFE15981090016847
:1052A000119141688268C368D0F810C0446985696B
:1052B000C669076AD0F82480D0F82890D0F82CA0CE
:1052C000D0F830B0D0F834E068461290C0F824E04E
:1052D0001198DDF848E0CEF820B0CEF81CA0CEF84A
:1052E0001890CEF81480CEF81070CEF80C60CEF87E
:1052F0000850CEF80440CEF800C00DF0FFFA40B1DF
:10530000FFE71599022081F8BD0401208DF85B00AC
:10531000EBE01598006800210F910EF09DFB0F98AF
:105320008DF84F00FFE79DF84F00159949688842B6
:1053300045D2FFE715989DF84F1001EBC10100EB36
:105340008101012081F83D009DF84F00159900EB87
:10535000C00201EB820181F83C009DF84F001599D5
:1053600000EBC00201EB8201A1F8440015989DF802
:105370004F1001EBC10100EB8101002081F84000DA
:1053800015999DF84F2002EBC20201EB820188645F
:1053900015999DF84F2002EBC20201EB8201C8640F
:1053A00015999DF84F2002EBC20201EB820148657E
:1053B000FFE79DF84F0001308DF84F00B3E7002064
:1053C0008DF84F00FFE79DF84F0015994968884216
:1053D0003ED2FFE715989DF84F1001EBC10100EB9D
:1053E0008101002081F87D029DF84F10159A01EB94
:1053F000C10302EB830282F87C1215999DF84F20BD
:1054000002EBC20201EB820181F8800215999DF83E
:105410004F2002EBC20201EB8201C1F8880215990C
:105420009DF84F2002EBC20201EB8201C1F88C0211
:1054300015999DF84F2002EBC20201EB8201C1F8E1
:105440009402FFE79DF84F0001308DF84F00BAE756
:1054500015980C9001680D9141688268C368D0F876
:1054600010C044698569C669076AD0F82480D0F8FD
:105470002890D0F82CA0D0F830B0D0F834E06846AE
:105480000E90C0F824E00D98DDF838E0CEF820B09A
:10549000CEF81CA0CEF81890CEF81480CEF810707C
:1054A000CEF80C60CEF80850CEF80440CEF800C01C
:1054B0000DF0ACFB40B1FFE71599022081F8BD0467
:1054C00001208DF85B0010E0159900200B9081F809
:1054D00038001599012081F8BD04159800680DF079
:1054E0007FFB0B988DF85B00FFE79DF85B0017B022
:1054F000BDE8F08F80B58AB0099000200890079031
:1055000006900590049009980068B0F1A04F47D12B
:10551000FFE7FFE70020039043F63000C4F20200EB
:10552000016841F001010160006800F00100039092
:105530000398FFE74FF4C05004900220059000202C
:105540000690032007900A2008900020C4F2020071
:1055500004A9FEF745FCFFE743F63401C4F202015B
:10556000086840F080000860FFE70020029043F6E2
:105570004400C4F20200016841F480410160006807
:1055800000F4804002900298FFE7FFE7432001907B
:1055900005210022FEF7F4FE0198FEF7E7FEFFE783
:1055A0000AB080BD80B582B0019001208DF8030063
:1055B0000198C06820B9FFE700208DF803000CE0D7
:1055C0000198C068022804D1FFE701208DF803008C
:1055D00002E0FCF7D9FAFFE7FFE70198D0F80805E9
:1055E0009DF803100CF0A0FB0198D0F808050CF012
:1055F0001BFB02B080BD000080B582B00190019815
:10560000D0F808050CF05EFB02B080BD80B582B01A
:1056100001900198D0F808050CF066FB02B080BD3F
:1056200080B584B002908DF80710FFE7029890F8DB
:10563000BC04012804D1FFE702208DF80F001AE016
:105640000299012081F8BC04FFE7FFE79DF80700FD
:10565000029981F83800029800689DF807100EF052
:105660006BFAFFE70299002081F8BC04FFE70020F5
:105670008DF80F00FFE79DF80F0004B080BD00001B
:1056800080B582B001900199D1F8080501F2C441BA
:105690000CF074FB02B080BD80B584B0029002981B
:1056A00000680190FFE7029890F8BC04012804D13B
:1056B000FFE702208DF80F0027E00299012081F812
:1056C000BC04FFE7FFE70298806A01280BD1FFE7DF
:1056D00002988069012806D0FFE70199886B40F4A1
:1056E00080308863FFE7029800680EF02DF802987A
:1056F00000680DF05FFAFFE70299002081F8BC0412
:10570000FFE700208DF80F00FFE79DF80F0004B0C1
:1057100080BD000080B582B001900198D0F80805E6
:105720000CF0AEFB01980168D1F8000E40F00100CA
:10573000C1F8000E0198006A48B1FFE74EF610511B
:10574000CEF20001086840F006000860FFE702B0F2
:1057500080BD000080B584B002900191029820B90C
:10576000FFE701208DF80F0021E1019843F6004189
:10577000C4F20201096801F00701884212D9FFE76B
:10578000019943F60040C4F202000170006800F085
:1057900007000199884204D0FFE701208DF80F002F
:1057A00005E1FFE702980078800700282AD5FFE787
:1057B000029800784007002809D5FFE743F6080162
:1057C000C4F20201086840F4E0500860FFE7029864
:1057D00000780007002809D5FFE743F60801C4F266
:1057E0000201086840F460400860FFE743F60801E2
:1057F000C4F20201086820F0F000029A9268104397
:105800000860FFE702980078C00700286ED0FFE725
:1058100002984068012811D1FFE743F60000C4F266
:105820000200006800F400310020B0EB514F04D1B9
:10583000FFE701208DF80F00B9E02CE002984068E6
:10584000022805D0FFE702984068032811D1FFE73E
:1058500043F60000C4F20200006800F0007100206E
:10586000B0EB516F04D1FFE701208DF80F009EE0EF
:1058700010E043F60000C4F20200006800F00201EC
:105880000020B0EB510F04D1FFE701208DF80F008D
:105890008DE0FFE7FFE743F60801C4F20201086864
:1058A00020F00300029A526810430860FEF78CFC57
:1058B0000090FFE743F60800C4F20200006800F021
:1058C0000C0002994968B0EB810F0ED0FFE7FEF79C
:1058D0007BFC0099401A41F28931884204D3FFE7EA
:1058E00003208DF80F0062E0E4E7FFE7019843F63C
:1058F0000041C4F20201096801F00701884212D296
:10590000FFE7019943F60040C4F20200017000680D
:1059100000F007000199884204D0FFE701208DF8CC
:105920000F0044E0FFE702980078400700280CD5FC
:10593000FFE743F60801C4F20201086820F4E050D2
:10594000029AD26810430860FFE7029800780007C7
:1059500000280DD5FFE743F60801C4F202010868EC
:1059600020F46040029A126940EAC2000860FFE732
:1059700000F076F843F60801C4F202010968C9B2E2
:105980000A094DF6F801C0F60101895CC84040F2F1
:10599000C401C2F20001086040F26820C2F20000B7
:1059A0000068FEF741FC00208DF80F00FFE79DF82E
:1059B0000F0004B080BD000082B0019000910199F9
:1059C0000F20086043F60800C4F20200016801F0ED
:1059D0000301019A5160016801F0F001019A9160A0
:1059E000016801F4E051019AD160006800F4604060
:1059F000C0080199086143F60040C4F20200006843
:105A000000F007000099086002B0704740F2C4003F
:105A1000C2F200000068704780B5FFF7F7FF43F659
:105A20000801C4F202010968C1F382224DF608118F
:105A3000C0F60101895CC84080BD000080B5FFF759
:105A4000E5FF43F60801C4F20201096889B24A0B76
:105A50004DF60811C0F60101895CC84080BD000008
:105A600080B586B00020059004900390029043F624
:105A70000800C4F20200006800F00C000146019129
:105A800040B1FFE7019804280AD0FFE701980828F1
:105A90000CD04FE042F20040C0F2F40002904FE020
:105AA00041F60030C0F2B700029049E043F604002E
:105AB000C4F20200016801F03F0105910068400254
:105AC000002813D5FFE743F60400C4F20200006883
:105AD000C0F3881041F60031C0F2B701A0FB01010C
